:020000040800F2
:0800000000040020810000084B
:100008000948006850F00800074908600748006878
:10001800F0218843054908600448006850F0D00082
:1000280002490860FEE700BF18100240040C0140B6
:100038006500000804000000000400200000000023
:1000480010B50448044C02E050F8041B8847A0424D
:10005800FAD110BD3800000848000008002305E068
:1000680050F8041B41F8043B121FFBD150F8042B35
:10007800002AF5D17047000000F026F8002801D0CA
:10008800FFF7DEFF0020FFF7BBFF00F01FF80000BE
:1000980080B504490868002803D00220ABBE0020C0
:1000A800086001BD0004002080B5FFF7F1FF024998
:1000B8001820ABBEFCE7C0462600020007463846BB
:1000C800FFF7F2FFFBE7000001207047FFF7F6BFDC
:04000005080000816E
:00000001FF
