:020000040800F2
:0800000000040020ED010008DE
:1000080001B481B002E00198401E019001980028D7
:10001800F9D102B07047000080B50248FFF7F0FF41
:1000280001BD00BFC44E0C00D2B2C9B251EA820170
:100038000022030619D0002200E0521C082A2FD201
:1000480080B2012393409842F7D192001548006886
:100058000F239340DB431840124B18601148006887
:10006800914008430F4908601AE080B2000A002254
:1000780000E0521C082A13D280B201239340984210
:10008800F7D19200084800680F239340DB431840DB
:10009800054B18600448006891400843024908600D
:1000A800704700BF000C0140040C014080B50D48AA
:1000B800006850F008000B490860002201214FF445
:1000C8000070FFF7B1FF002201212020FFF7ACFFED
:1000D800002201214FF48070FFF7A6FF00F058F8C6
:1000E800FEE700BF181002401348006850F4007083
:1000F80011490860704700001448006850F4007007
:1001080012490860704700000B48006850F0200052
:1001180009490860704700000C48006850F020004A
:100128000A490860704700000348006850F480706E
:100138000149086070470000140C0140034800683A
:1001480050F480700149086070470000100C0140AD
:1001580010B5040018E0FFF7CFFFFFF7D5FFFFF752
:10016800E3FFFFF759FFFFF7BFFFFFF7D5FFFFF7E3
:10017800DBFFFFF751FFFFF7B7FFFFF7C5FFFFF7FB
:10018800DDFFFFF749FF641E002CE4D110BD00001D
:1001980080B51E20FFF7DCFF01BD0000D10100087B
:1001A80004000000000400200000000010B504480E
:1001B800044C02E050F8041B8847A042FAD110BD55
:1001C800A4010008B4010008002305E050F8041B4E
:1001D80041F8043B121FFBD150F8042B002AF5D13B
:1001E8007047000000F026F8002801D0FFF7DEFF76
:1001F8000020FFF75BFF00F01FF8000080B50449FE
:100208000868002803D00220ABBE0020086001BDAA
:100218000004002080B5FFF7F1FF02491820ABBEAB
:10022800FCE7C0462600020007463846FFF7F2FF03
:0C023800FBE7000001207047FFF7F6BF55
:04000005080001ED01
:00000001FF
