:020000040800F2
:100000000050002035010008750100087501000846
:100010007501000875010008750100080000000066
:100020000000000000000000000000007501000852
:100030007501000800000000750100087501000846
:1000400075010008750100087501000875010008B8
:1000500075010008750100087501000875010008A8
:100060007501000875010008750100087501000898
:100070007501000875010008750100087501000888
:100080007501000875010008750100087501000878
:100090007501000875010008750100087501000868
:1000A0007501000875010008750100087501000858
:1000B0007501000875010008750100087501000848
:1000C0007501000875010008750100087501000838
:1000D0007501000875010008750100087501000828
:1000E0007501000875010008750100080000000096
:1000F0000000000000000000000000000000000000
:0C01000000000000000000005FF808F1A3
:10010C00074A136843F008031360064A136823F088
:10011C00F0031360136843F0D0031360FEE7C0468E
:10012C0018100240040C0140002103E0094B5B58FD
:10013C00435004310848094B42189A42F6D3084AF6
:10014C0002E0002342F8043B064B9A42F9D3FFF736
:10015C00D7FF704778010008000000200000002045
:0C016C000000002000000020FEE7000062
:040000050800010CE2
:00000001FF
