:020000040800F2
:100000000050002099030008D9030008D903000814
:10001000D9030008D9030008D90300080000000034
:10002000000000000000000000000000D9030008EC
:10003000D903000800000000D9030008D903000814
:10004000D9030008D9030008D9030008D903000820
:10005000D9030008D9030008D9030008D903000810
:10006000D9030008D9030008D9030008D903000800
:10007000D9030008D9030008D9030008D9030008F0
:10008000D9030008D9030008D9030008D9030008E0
:10009000D9030008D9030008D9030008D9030008D0
:1000A000D9030008D9030008D9030008D9030008C0
:1000B000D9030008D9030008D9030008D9030008B0
:1000C000D9030008D9030008D9030008D9030008A0
:1000D000D9030008D9030008D9030008D903000890
:1000E000D9030008D9030008D90300080000000064
:1000F0000000000000000000000000000000000000
:0C01000000000000000000005FF808F1A3
:10010C0082B0019002E0019B013B0193019B002B0B
:10011C00F9D102B07047C04610B50248FFF7F0FFA6
:10012C0010BDC046143B0100C905C90D8180704744
:10013C00038819420CBF002001207047014610B5FE
:10014C000448FFF7F1FF03488021FFF7F1FF002877
:10015C00F9D010BD0038014070B50546002401E00F
:10016C00FFF7ECFF285D01340028F9D170BDC046C3
:10017C00038ACA8823F440531B041B0C13430382C9
:10018C0082890B8910B58C8822F4B05223434C8998
:10019C0022F00C0212042343120C9BB213438381F2
:1001AC00838A8A8923F440731B041B0C13430A684B
:1001BC0083820A4B9200B3FBF2F36422B3FBF2F19D
:1001CC0001FB12331B013233B3FBF2F303F00F03C9
:1001DC0043EA01139BB2038110BDC04600C2EB0B76
:1001EC001FB50E4C4FF4E1330093A3F5E133ADF89A
:1001FC000430ADF80630ADF80830ADF80C302046C0
:10020C004FF00C036946ADF80A30FFF7B1FFA38934
:10021C009BB243F40053A3811FBDC046003801407C
:10022C00F0B5CD780E8815F0100F18BF8B7805F04F
:10023C000F0718BF1F4316F0FF0F20D004684FF0B4
:10024C00000C012303FA0CF303EA0601994210D1C6
:10025C004FEA8C020F23934017FA02F224EA0303AD
:10026C00282D43EA020401D1416102E0482D08BF68
:10027C0001610CF1010CBCF1080FE2D10460FF2EFE
:10028C0021D944684FF0000C01230CF10802934073
:10029C0003EA0601994210D14FEA8C020F239340D6
:1002AC0017FA02F224EA0303282D43EA020401D1CF
:1002BC00416102E0482D08BF01610CF1010CBCF159
:1002CC00080FE1D14460F0BD2DE977411F4D01AE1F
:1002DC004FF40073ADF804304FF003081823284690
:1002EC00314604248DF807308DF80680FFF798FF0F
:1002FC004FF4806328463146ADF804308DF8074042
:10030C00FFF78EFF4FF0010328463146ADF804305D
:10031C008DF80740FFF784FF4FF002032846314663
:10032C00ADF804308DF80740FFF77AFF4FF44873AF
:10033C00ADF804300648102331468DF806808DF850
:10034C000730FFF76DFFBDE87E81C0460008014015
:10035C00000C01400B4A10B5936943F00403936100
:10036C00936943F008039361936943F48043936169
:10037C00FFF7AAFFFFF734FF0348FFF7EDFE00F08D
:10038C0065F8FEE700100240A8040008002103E015
:10039C00094B5B58435004310848094B42189A42A8
:1003AC00F6D3084A02E0002342F8043B064B9A427B
:1003BC00F9D3FFF7CFFF7047CC04000800000020F2
:1003CC00000000200000002000000020FEE70000DC
:1003DC00024A536943F4007353617047000C0140A7
:1003EC00024A136943F4007313617047000C014017
:1003FC00024A536943F0200353617047000C0140DB
:10040C00024A136943F0200313617047000C01404A
:10041C00024A536943F4807353617047000C0140E6
:10042C00024A136943F4807313617047000C014056
:10043C0010B5FFF7D5FFFFF7E3FFFFF7F1FF10BD96
:10044C00836819420CBF00200120704710B5FFF7DC
:10045C00EFFF0024FFF760FE04F00103013413B931
:10046C00FFF7D6FF01E0FFF7DBFF01210A48FFF79A
:10047C00E7FF012802D1FFF7ABFF01E0FFF7B0FF68
:10048C0002210548FFF7DCFF012802D1FFF7B0FF7E
:10049C00E0E7FFF7B5FFDDE7000801400D0A48650E
:1004AC006C6C6F20576F726C64212048656C6C6F9C
:1004BC0020436F727465782D4D33210D0A000000B6
:040000050800010CE2
:00000001FF
