:020000040800F2
:1000000000500020110200085102000851020008AF
:1000100051020008510200085102000800000000CF
:100020000000000000000000000000005102000875
:1000300051020008000000005102000851020008AF
:100040005102000851020008510200085102000844
:100050005102000851020008510200085102000834
:100060005102000851020008510200085102000824
:100070005102000851020008510200085102000814
:100080005102000851020008510200085102000804
:1000900051020008510200085102000851020008F4
:1000A00051020008510200085102000851020008E4
:1000B00051020008510200085102000851020008D4
:1000C00051020008510200085102000851020008C4
:1000D00051020008510200085102000851020008B4
:1000E00051020008510200085102000800000000FF
:1000F0000000000000000000000000000000000000
:0C01000000000000000000005FF808F1A3
:10010C0082B0019002E0019B013B0193019B002B0B
:10011C00F9D102B07047C04610B50248FFF7F0FFA6
:10012C0010BDC046C44E0C0010B50248FFF7E8FFE6
:10013C0010BDC046143B010042EA830C11F0FF02D3
:10014C0015D000220123934099420CD192000F2329
:10015C0093400CFA02F2016821EA03010160036882
:10016C001A43026018E00132082AEBD114E0090AA4
:10017C000123934099420CD192000F2393400CFA27
:10018C0002F2416821EA0301416043681A4342606C
:10019C0002E00132082AEBD17047C046164B10B56D
:1001AC009A69164842F004029A619A694FF40071F8
:1001BC0042F008029A6101220023FFF7BDFF0F48AD
:1001CC00202101220023FFF7B7FF0C484FF4807168
:1001DC0001220023FFF7B0FF01210B460848002243
:1001EC00FFF7AAFF0648022100220123FFF7A4FF14
:1001FC0000F068F8FEE7C04600100240000C014019
:10020C0000080140002103E0094B5B5843500431C6
:10021C000848094B42189A42F6D3084A02E00023D8
:10022C0042F8043B064B9A42F9D3FFF7B7FF7047ED
:10023C002403000800000020000000200000002023
:10024C0000000020FEE70000024A536943F40073EB
:10025C0053617047000C0140024A136943F4007368
:10026C0013617047000C0140024A536943F02003AC
:10027C0053617047000C0140024A136943F020039C
:10028C0013617047000C0140024A536943F48073B8
:10029C0053617047000C0140024A136943F48073A8
:1002AC0013617047000C014010B5FFF7D5FFFFF745
:1002BC00E3FFFFF7F1FF10BD836819420CBF00206C
:1002CC000120704710B5FFF727FFFFF7EDFF002463
:1002DC00FFF72AFF04F00103013413B9FFF7D4FF31
:1002EC0001E0FFF7D9FF01210A48FFF7E5FF0128DC
:1002FC0002D1FFF7A9FF01E0FFF7AEFF022105488D
:10030C00FFF7DAFF012802D1FFF7AEFFE0E7FFF7B6
:08031C00B3FFDDE7000801401A
:040000050800010CE2
:00000001FF
