:020000040800F2
:10000000005000202D1F00086D1F00086D1F000804
:100010006D1F00086D1F00086D1F00080000000024
:100020000000000000000000000000006D1F00083C
:100030006D1F0008000000006D1F00086D1F000804
:100040006D1F00086D1F00086D1F00086D1F000860
:100050006D1F00086D1F00086D1F00086D1F000850
:100060006D1F00086D1F00086D1F00086D1F000840
:100070006D1F00086D1F00086D1F00086D1F000830
:100080006D1F00086D1F00086D1F00086D1F000820
:100090006D1F00086D1F00086D1F00086D1F000810
:1000A0006D1F00086D1F00086D1F00086D1F000800
:1000B0006D1F00086D1F00086D1F00086D1F0008F0
:1000C0006D1F00086D1F00086D1F00086D1F0008E0
:1000D0006D1F00086D1F00086D1F00086D1F0008D0
:1000E0006D1F00086D1F00086D1F00080000000054
:1000F0000000000000000000000000000000000000
:0C01000000000000000000005FF808F1A3
:10010C0030B5054689B008460C4600F02DF80122A2
:10011C0042F2A403C0F600030492039301AB0194D2
:10012C000593029080189218079006920DB1AB6956
:10013C005BB12846A96805AA00F030F9002814BF65
:10014C004FF0FF300A2009B030BD284600F0BAF855
:10015C00EFE7C04640F214030146C2F2000310B5AB
:10016C001868FFF7CDFF10BD10F0030F014618BF44
:10017C0000460BD108460B6801E050F8043FA3F190
:10018C000132DB431A4012F0803FF6D003781BB1EA
:10019C0010F8013F002BFBD1401A70477047C04646
:1001AC007047C0467047C0467047C0460020704735
:1001BC000020704740F2140340F2BD11C2F200035C
:1001CC00C0F6000110B5186800F088FA10BDC046E2
:1001DC0040F2140340F2B911C2F20003C0F6000160
:1001EC0010B5186800F07AFA10BDC04641F23551CE
:1001FC0010B5C0F6000100F071FA10BD42F2800398
:10020C0041F23551C0F60003C0F6000110B5186874
:10021C0000F064FA10BDC046CA004B019B1A5B1A71
:10022C0070B59E000D4606F10C0100F083FA0446F1
:10023C0040B100F10C000021656032462160A060E5
:10024C0000F000FE204670BD42F28003C0F60003B1
:10025C0070B51C680546A269002A24D0D83463689E
:10026C00A06813F1FF3204D519E012F1FF3216D455
:10027C005C30B0F90C30002BF7D14FF0FF33C38159
:10028C004FF00103838100230360836043600361AB
:10029C0043618361436383638364C36470BD20687B
:1002AC0028B10446DBE7204600F00CF8D6E72846D8
:1002BC000421FFF7B1FF20600028F2D10C232B6042
:1002CC00ECE7C0462DE9F042876982B0002F62D17D
:1002DC0040F2F9134FF00109C0F60003C0F8189072
:1002EC00836241F20136C0F8D87041F2C525C0F8DE
:1002FC00DC7041F29D24C0F8E070C0F6000601905D
:10030C00FFF7A2FF0199C0F60005C0F60004486093
:10031C000846FFF799FF019988600846FFF794FF9C
:10032C0001994FF0040341F2912EC0F6000E4A6879
:10033C0093818B68176057609760D78117615761FD
:10034C009761126256629562D462C2F830E04FF047
:10035C0009021F605F609F609A814FF00202A3F850
:10036C000E901F615F619F611B625E629D62DC6229
:10037C00C3F830E04FF01203C86007604760876035
:10038C008381C28107614761876100624662856231
:10039C00C462C0F830E002B0BDE8F0822DE9F04F45
:1003AC00936885B00E4602900192002B2DD08F8958
:1003BC0017F0080F2DD00B69002B2AD0019A17F0DB
:1003CC000200D2F800A032D000273D46B5B1B5F5F9
:1003DC00806F34BF2B464FF48063B46A02983A4660
:1003EC00316AA047002840F39B80019A93681B1A3E
:1003FC00936053B12D1A3F18002DE8D1DAF8007034
:10040C00DAF804500AF1080AE0E7002005B0BDE86C
:10041C00F08F0298314600F095FF002840F02781BC
:10042C00B789019A17F00200D2F800A0CCD117F0CE
:10043C00010104BF8846454640F0A180002D52D0F2
:10044C0017F4007FB46855D0A54238BF2C4633D37F
:10045C0017F4906F30D0726933683169C1EB030BBC
:10046C0053009B1803EBD3734FEA63090BF10103A1
:10047C005B194A4699453CBF99464A4617F4806F2A
:10048C006FD00298114600F055F90446002872D03E
:10049C0031695A4600F02AFCB38923F4906343F087
:1004AC008003B38104EB0B0334612C463360C6F834
:1004BC001490CBEB0903B36022463068414600F040
:1004CC0061FCB36832681B1BB36012192C46326096
:1004DC00019A93681B1B9360002B96D02D1BA04494
:1004EC00B789002DACD1DAF80080DAF804500AF1A3
:1004FC00080AA3E73068AC422CBF00230123326901
:10050C00904294BF002303F00103E3B973699D4249
:10051C000DD3B46A42460298316AA047041ED7DC58
:10052C00B3894FF0FF3043F04003B3816EE72A46A6
:10053C00414600F027FCB36832682C465B1BB36065
:10054C0052193260C4E74146224600F01BFC336866
:10055C00029831461B19336000F0F0FF0028B7D029
:10056C00DEE7029800F0B6FC044600289AD1029807
:10057C00316901F0E7F8029A0C231360D0E7834647
:10058C00814680460390B8F1000F30D0039A002AC0
:10059C005CD0B368C14534BF4F4647467569306877
:1005AC00EC183269A742D4BF00230123904294BFB8
:1005BC00002303F00103002B3AD1AF4220DBB46AD5
:1005CC005A4602982B46316AA047041EA8DDB9EBA7
:1005DC00040923D0019A93681B1B9360002B3FF4F2
:1005EC0014AFC4EB0808A344B8F1000FCED1DAF86D
:1005FC0000B00023DAF804800AF1080A0393C2E77A
:10060C003A46594600F0BEFBB36832683C46DB1BE9
:10061C00B360D219B9EB04093260DBD102983146D0
:10062C0000F08CFF00287FF47BAFCDF80C90D1E765
:10063C005946224600F0A6FB3368029831461B1936
:10064C00336000F07BFF0028C1D069E758460A21CF
:10065C00424600F00BFB28B1431CCBEB03090123F2
:10066C00039396E7012208F10109039291E7B389FC
:10067C0009224FF0FF3043F04003B381029B1A6014
:10068C00C4E6C0462DE9F04781468A46FFF786FD51
:10069C0019F1D80708BFB8461BD04FF000087E6888
:1006AC00BD68002E12DD002400E05C35B5F90C307D
:1006BC004BB1B5F90E30B3F1FF3F04D04846294693
:1006CC00D04748EA00080134B442EED13F68002F0D
:1006DC00E5D1FFF765FD4046BDE8F0872DE9F04711
:1006EC0004468946FFF75AFD14F1D80708BFB846EF
:1006FC001AD04FF000087E68BD68002E11DD002472
:10070C0000E05C35B5F90C3043B1B5F90E30B3F1FE
:10071C00FF3F03D02846C84748EA00080134B442DA
:10072C00EFD13F68002FE6D1FFF73AFD4046BDE818
:10073C00F087C04601F10B020B46162A2DE9F04F4B
:10074C00804683B000F2A380102500219D422CBF6F
:10075C000B4641F00103002B40F0B381404600F002
:10076C00B5FBB5F5FC7FC0F096806A0A40F0B2800C
:10077C00EA08D30040F20817C2F20007F818C46860
:10078C00A04206D10CE0002B80F27681E468A042F6
:10079C0006D0636823F003014B1B0F2BF3DD013AEA
:1007AC0002F1010E40F20812C2F2000202F1080C32
:1007BC00DCF80840A44508BF914620D0636823F0BC
:1007CC000301481B0F2800F366810028CCF80CC0ED
:1007DC00CCF808C080F28680B1F5007F80F076817D
:1007EC00C908914601227B688810C900494482409F
:1007FC0013437B608B68E160A360DC608C60012339
:10080C004FEAAE02D9F8041013FA02F68E4270D8F1
:10081C000E420BD176002EF003030E4203F1040EB0
:10082C0004D176000EF1040E0E42FAD04FEACE033C
:10083C00F24609EB03010A46D068824207D17BE1FC
:10084C00002C80F28081C068824200F07581436880
:10085C0023F003035C1B0F2CF2DD421945F001035E
:10086C000546C1684360404655F8083F1451D960AD
:10087C008B6044F00103CCF80C20CCF80820C2F8B3
:10088C000CC0C2F808C0536000F022FB1EE022F03E
:10089C000705E90F5AE740F20817EA08C2F2000709
:1008AC007B19DC689C4200F033816268E168A368C4
:1008BC0022F00302A218D9608B605368404604F101
:1008CC00080543F00103536000F002FB284603B017
:1008DC00BDE8F08F042A07D9142A00F223815B3279
:1008EC00D30047E76218E8E7AB0903F13802D300FD
:1008FC0040E7D9F80840636823F0030CC5EB0C0102
:10090C000F29CCBF00230123654588BF43F00103A9
:10091C00002B00F0A28040F2185BD7F80824C2F23A
:10092C00000BDBF8003010335E19B2F1FF3F06D03C
:10093C0006F57E631F3323F47E6626F01F064046C1
:10094C003146CDF804C000F089FCDDF804C0B0F1EC
:10095C00FF3F824670D004EB0C01814240F22381B0
:10096C004C4569D1DBF80430F018CBF80400D7F80B
:10097C00083440F20812C2F20002B3F1FF3F08BF84
:10098C00C2F808A404D0C1EB0A031B18CBF804303E
:10099C001AF00703404617BFC3F108034FF4805108
:1009AC009A4403F580510AEB0603CDF804C01B05ED
:1009BC001B0DCE1A314600F051FCDDF804C0B0F12D
:1009CC00FF3F00F03381CAEB00039B1943F0010099
:1009DC00DBF80430C9F808A0F3184C45CBF8043008
:1009EC00CAF8040014D0BCF10F0F40F20381ACF133
:1009FC000C01052221F0070160180F29426082606A
:100A0C00636803F0010341EA0303636000F20881A9
:100A1C00DBF8041040F21852DBF82C30C2F2000262
:100A2C00994288BFD16240F21852DBF83030C2F2E2
:100A3C000002994288BF1163D9F80840626822F01D
:100A4C000302511B0F29CCBF00230123954288BF01
:100A5C0043F00103002B40F0FF80621945F00103C5
:100A6C00C9F808204046636041F00103536004F16B
:100A7C00080500F02DFA29E7A3686118E2684046E2
:100A8C0004F10805DA6093604B6843F001034B6096
:100A9C0000F01EFA1AE7631945F00102CCF80C308D
:100AAC0004F10805626040F00102CCF808301850DF
:100ABC004046C3F80CC0C3F808C05A6000F008FAEE
:100ACC0004E70C230025C8F80030FFE64A0A042A84
:100ADC0048D9142A00F2928002F15B03DA00B818AC
:100AEC0040F20819C2F200098668864218BF3246E5
:100AFC0076D0536823F00303994202D29268904255
:100B0C00F7D1D3681646E360A660F4609C6076E685
:100B1C0004F10803DC68A34208BF02F1020E3FF4A3
:100B2C0041AEC2E6542A21D9B2F5AA7F50D8EB0BBC
:100B3C0003F17702D3001DE60AF1010A1AF0030F44
:100B4C0019D0083278E6C2180546C1684046536889
:100B5C0043F00103536055F8083FD9608B6000F0F7
:100B6C00B7F9B3E68B093833DA00B8E72B0B03F18E
:100B7C006E02D300FEE5724600E0013A12F0030F5C
:100B8C005FD00B4653F808199942F6D0D9F80430C7
:100B9C0076009E423FF6ADAE002E3FF4AAAE1E424A
:100BAC005FD0D64642E6DBF8043006EB0300CBF808
:100BBC0004007FF4DCAE0B051B0D002B7FF4D7AECD
:100BCC00D9F8082006EB0C0343F0010353601FE730
:100BDC0040F254539A4217D97E22A3F5B273C9E559
:100BEC0001229910D9F804308A401343C9F8043013
:100BFC00334688E70123CAF804301DE7542A08D885
:100C0C000B0B6E33DA006AE7AB0C03F17C02D300FA
:100C1C00B0E5B2F5AA7F0CD8CB0B7733DA005EE7E0
:100C2C00404604F1080100F08DFDF1E6002602308B
:100C3C00CEE640F254539A420AD97E234FF47C728A
:100C4C004DE7D9F80430F2431340C9F804309DE75E
:100C5C008B0C7C33DA0042E74046002500F038F973
:100C6C0034E60AF1040A760099E7C046032A844662
:100C7C0030B4C9B2144627D91CF0030325D11D4644
:100C8C001A462B0201325D18042AFAD16046036819
:100C9C0085EA0303A3F10132DB431A4012F0803FD3
:100CAC000ED003788B421ED04378421C8B421BD053
:100CBC008378821C8B4217D0C378C21C8B4213D012
:100CCC00043C0430032CE2D85CB103788B4206D090
:100CDC00621E32B110F8013F013A8B42F9D130BC9F
:100CEC0070470020FBE702461046F8E770B4144644
:100CFC000F2C06460D4604D945EA060313F0030FE4
:100D0C000DD04AB14FF0000C11F80C3000F80C303B
:100D1C000CF1010C9445F7D1304670BC7047A446D9
:100D2C000B68ACF1100C03604A6842608B688360FE
:100D3C00CA681031C2601030BCF10F0FF0D8A4F1AA
:100D4C00100303F00F0223F00F031033EC18F1180B
:100D5C00032A13D94FF0000C54F80C3041F80C3026
:100D6C000CF1040CCCEB0203032BF5D8131F03F08E
:100D7C00030223F003030433E418C9180846214680
:100D8C00BFE7C046F0B406460D461446AE4211D934
:100D9C002F19BE420ED254B13219634202EB030C2E
:100DAC00611EFA18535C0CF801300139FAD2304646
:100DBC00F0BC70470F2C0CD8002AF8D04FF0000C68
:100DCC0011F80C3000F80C300CF1010C9445F7D1F3
:100DDC00EDE745EA060313F0030FEDD13046294643
:100DEC00A4460B68ACF1100C03604A6842608B6837
:100DFC008360CA681031C2601030BCF10F0FF0D89C
:100E0C00A4F1100303F00F0223F00F031033E918C1
:100E1C00F418032A13D94FF0000C51F80C3044F895
:100E2C000C300CF1040CCCEB0203032BF5D8131F84
:100E3C0003F0030223F003030433C918E41820461B
:100E4C00BAE7C046032A844630B40446CDB231D941
:100E5C0010F0030F2FD145EA05230F2A88BF9446C3
:100E6C0043EA034188BF234612D9ACF1100C196038
:100E7C0059609960D9601033BCF10F0FF5D8103A56
:100E8C0022F00F0302F00F021033E018032A10D9DE
:100E9C004FF0000C40F80C100CF1040CCCEB0203DE
:100EAC00032BF7D8131F03F0030223F003030433BF
:100EBC00C018844632B1E9B200230CF80310013398
:100ECC009A42FAD1204630BC7047C0467047C046A3
:100EDC007047C0462DE9F04F85B090468A46029087
:100EEC00002900F02181FFF7F1FF08F10B01162911
:100EFC00AAF108078BBF21F007094FF01009CE4665
:100F0C00CE4688BF4FEAD9737C6898BF002322462F
:100F1C00C1452CBF1E4643F00106002E40F0368121
:100F2C0024F003057545A4BF3C462E464FDA40F22B
:100F3C00081B7919C2F2000BDBF808C08C4500F0D5
:100F4C00F880486820F00103CB185A6812F0010FA2
:100F5C0032D03146304614F0010F40F09F805AF8E1
:100F6C00083CFB1A03935A6822F00302002957D05D
:100F7C00614500F01081521986187645B8BF1646A7
:100F8C004FDBCA688B68DA6093602A1F039B242AA4
:100F9C001846D96850F8083FD9608B6000F2EA8097
:100FAC00132A544605466BD9DAF80030211D0398F4
:100FBC008360DAF804304CE020F0030046197645E3
:100FCC00C9DBCA688B68DA60936022463C46C9EB81
:100FDC0006000F2810D802F00103A21933436360F6
:100FEC00536843F00103536002980834FFF770FF15
:100FFC00204605B0BDE8F08F04EB090102F00103B7
:10100C0040F00102081843EA090363604A600831A2
:10101C00436843F001034360029800F093FBE3E75D
:10102C00561976453ADB0398C26850F8083FDA60E7
:10103C0093602A1F242A00F29D80132A54460546E9
:10104C001ED9DAF80030039903988B60211DDAF869
:10105C0004300C1D1B2AC36000F1100510D94B681D
:10106C00211D00F11805036163680C1D242A4361DE
:10107C0006D14B6800F12005836162680834C261B7
:10108C002046294650F8042B41F8042B63686B600A
:10109C0042684A6003990C464A6898E702984146B0
:1010AC00FFF748FB044600283AD07A68A0F1080103
:1010BC0022F00103FB18994200F0C0802F1F242F4F
:1010CC005FD8132F554606461CD95046214650F87A
:1010DC00042B051D41F8042B0E1DDAF804301B2FD0
:1010EC0063600FD943682A1D4B60311D6B68151D59
:1010FC0073600E1D242F05D153684B606A68083548
:10110C00726008362846314650F8042B41F8042BFF
:10111C006B68736042684A600298514600F012FB9B
:10112C000298FFF7D5FE63E71146FFF703FB044671
:10113C005EE7DCF8043023F0030009F110034219D8
:10114C009A42B8BF6146FFF606AF07EB0903C9EB3D
:10115C00020242F0010202985A6007F10804796811
:10116C00CBF8083001F0010149EA01017960FFF781
:10117C00AFFE3DE75146FFF705FE039B1C465A6840
:10118C0025E751463A46FFF7FDFDC5E702980C23CB
:10119C00002403602CE7561909F1100300EB060C30
:1011AC009C45FFF63EAF03990C46CA6854F8083FBD
:1011BC00DA6093602A1F242A46D8132A55462646FD
:1011CC001DD9DAF8003003988B60291DDAF8043049
:1011DC000D1D1B2A00F11006C36010D94B68291D88
:1011EC0000F1180603616B680D1D242A436106D1BA
:1011FC004B6800F1200683616A680835C261284695
:10120C00314650F8042B41F8042B6B68736042682C
:10121C004A600399C9EB0C0242F00102029801EBFF
:10122C000903CBF808305A600A46496801F00101FD
:10123C0049EA01015160FFF74BFED9E64B683C4689
:10124C0023F003035E19C2E620465146CDF804C0D4
:10125C00FFF798FDDDF804C0DBE7C04670B540F23F
:10126C005054C2F20004054608460023236000F0E7
:10127C00A9FEB0F1FF3F00D070BD2368002BFBD05E
:10128C002B60F9E710B5B1F90E1000F0DDF810BDC8
:10129C0010B50C46B1F90E1000F01AFBB0F1FF3F7F
:1012AC0015BF6065A389A38923F4805316BF43F44B
:1012BC008053A381A38110BD2DE9F0411F468B897A
:1012CC0005460C46164613F4807F06D00223B1F96E
:1012DC000E10002200F0FCFAA38923F48053284658
:1012EC00A3813246B4F90E103B4600F015F8BDE868
:1012FC00F081C04610B50C46B1F90E1000F06EFB33
:10130C00002803DB636D1B18636510BDA38923F4F0
:10131C008053A381F9E7C04670B540F25054C2F235
:10132C000004054600202060084611461A4600F0CD
:10133C0039FEB0F1FF3F00D070BD2368002BFBD00D
:10134C002B60F9E770B540F21405C2F200050646B1
:10135C000C46286810B18369002B31D042F220036F
:10136C00C0F600039C4233D042F24003C0F60003A7
:10137C009C4244D042F26003C0F600039C4204BF7E
:10138C002B68DC68A289104693B213F0080F18BFC3
:10139C00216937D0002925D013F0010207D06369E9
:1013AC000022A2605B42A361A9B1002070BD13F0C2
:1013BC00020F14BF13466369A3600029F5D10AE03C
:1013CC00FEF780FF42F22003C0F600039C42CBD113
:1013DC002B685C68D6E7A38913F0800FE5D04FF03B
:1013EC00FF30E3E713F4007F02D013F0800FD3D06B
:1013FC002146304600F082FAA3892169CCE72B689C
:10140C009C68BFE713F0100FE9D013F0040F08BF6E
:10141C00216913D0616B49B104F14403994203D0A3
:10142C00304600F08FF9A2890023636322F0240375
:10143C0021690022A38198B26260216040F0080308
:10144C00A3819BB2A6E7C04670B540F25054C2F2DD
:10145C000004054608460023236000F08BFDB0F124
:10146C00FF3F00D070BD2368002BFBD02B60F9E749
:10147C0070B506460C4600294BD0FEF78FFE16B110
:10148C00B369002B47D042F22003C0F600039C4204
:10149C0008BF74680ED042F24003C0F600039C42B1
:1014AC0008BFB46806D042F26003C0F600039C4249
:1014BC0008BFF468B4F90C503DB33046214600F037
:1014CC003DF8236B05463BB13046216A984735EA17
:1014DC00200528BF4FF0FF35A38913F0800F1ED1D4
:1014EC00616B41B104F14403994202D0304600F0E3
:1014FC0029F900236363A16C21B1304600F022F975
:10150C000023A3644FF00003A381FEF749FE284695
:10151C0070BD0D46FBE73046FEF7D4FEB3E7304610
:10152C00216900F00FF9DBE740F214030146C2F227
:10153C00000310B51868FFF79BFF10BD0B692DE970
:10154C00F04180460F46002B70D010B18369002B00
:10155C006FD042F22003C0F600039F4208BFD8F8B8
:10156C00047010D042F24003C0F600039F4208BF43
:10157C00D8F8087007D042F26003C0F600039F420F
:10158C0008BFD8F80C70BB891AB212F0080F21D022
:10159C003E69002E4AD03B683E609D1B12F0030F43
:1015AC000CBF7B690023002DBB6004DC3EE02D1AD0
:1015BC00002D3BDD3618BC6A4046396A32462B4654
:1015CC00A0470028F3DCBB894FF0FF3043F0400309
:1015DC00BB812CE043F400627B68BA81002B2BDDCD
:1015EC00FD6A1DB312F4805218BF7C6D28D0BB89E4
:1015FC0013F0040F05D07B687A6BE41A0AB13B6CCC
:10160C00E41A00234046396A2246A847A042DAD1A0
:10161C00BB890020786023F40063BB81BA893B69E5
:10162C0012F4805F18BF7C653B6000D10020BDE8E0
:10163C00F081FEF747FE8CE73B6C002BD0DCF5E726
:10164C0001234046396AA847B0F1FF3F044618BF52
:10165C00FD6ACCD1D8F800301D2BE7D0BB8943F004
:10166C004003BB81E3E7C04610B5014638B140F2F8
:10167C001403C2F200031868FFF760FF10BD42F2BA
:10168C00800341F24951C0F60003C0F6000118680E
:10169C00FEF7F8FFF2E7C0462DE9F04140F20815DD
:1016AC00C2F200050C460746FFF710FCAB685A68FF
:1016BC0022F0030606F57E630F331B1B1B0B013B4D
:1016CC001C03B4F5805F07DB00213846FFF7C6FD2D
:1016DC00AB689B19984205D03846FFF7F9FB002000
:1016EC00BDE8F08161423846FFF7B8FDB0F1FF3F2D
:1016FC0010D0A96840F21C52C2F20002331B43F016
:10170C00010338464B6013681B1B1360FFF7E0FBAB
:10171C000120E5E700213846FFF7A0FDAD68441B2A
:10172C000F2CD9DD40F2105340F21C51C2F20003D1
:10173C00C2F200011A6844F00103821A0A606B605D
:10174C00CAE7C0462DE9F04180460C46002947D037
:10175C00A4F10805FFF7BAFB40F208176A68C2F259
:10176C00000722F001016818436823F00306BB68E8
:10177C00834259D012F0010E466033D000248319F5
:10178C005A6812F0010F09D18919002C4AD18268CC
:10179C004E4B9A4278D0C368D3609A6041F00103F3
:1017AC0069506B60CCB9B1F5007F29D34A0A042A81
:1017BC005CD88B093833DA00BA18906890425BD049
:1017CC00436823F00303994202D280688242F7D126
:1017DC00C368EB60A860C5609D604046FFF778FB6E
:1017EC00BDE8F08154F8083CED1AC91807F108035C
:1017FC00AA689A4238D0EB687446D3609A60BEE708
:10180C00C90801227B688810C900791882401343EB
:10181C007B608B684046E960AB60DD608D60FFF7F4
:10182C0057FBDDE78268B6E7711812F0010F07D19C
:10183C0054F8083CED1AC918EA68AB68DA60936092
:10184C0041F001036B6040F21453BD60C2F200031F
:10185C001A689142C1D340F218534046C2F20003B9
:10186C001968FFF719FFB8E7012488E7142A14D880
:10187C0002F15B03DA009FE7012299107B688A4032
:10188C0013437B600346A4E7D56041F001039560E8
:10189C00EA60AA606B6069509FE7542A03D80B0B6F
:1018AC006E33DA0088E7B2F5AA7F03D8CB0B773317
:1018BC00DA0081E740F254539A4203D97E234FF465
:1018CC007C7279E78B0C7C33DA0075E71001002011
:1018DC0070B540F25054C2F200040546002020605E
:1018EC00084611461A4600F041FBB0F1FF3F00D00C
:1018FC0070BD2368002BFBD02B60F9E78B89F0B50A
:10190C0006469AB291B012F0020F0C4621D1B1F9F1
:10191C000E10002927DB01AA00F076F8002820DB46
:10192C00029B03F47043B3F5005F14BF002701273B
:10193C00B3F5004F41D0A3894FF4806543F40063A5
:10194C00A3811AE0A38913F4007F08D143F00203AA
:10195C00A38104F14702012322602261636111B06B
:10196C00F0BDA3899AB212F0800F43F400630CBF50
:10197C004FF4806540250027A38130462946FEF7A9
:10198C00D9FE0028DED0A28940F2F913C0F600037C
:10199C00206042F08002B362A28120616561002F59
:1019AC00DDD03046B4F90E1000F044F80028D6D043
:1019BC00A38943F00103A381D1E741F29D23E26A9D
:1019CC00C0F600039A42B6D1A3894FF48062154643
:1019DC00226543F48063A381CFE7C04670B540F223
:1019EC005054C2F2000405460020206008461146FF
:1019FC001A4600F0B7FAB0F1FF3F00D070BD236873
:101A0C00002BFBD02B60F9E770B540F25054C2F2BA
:101A1C0000040546084611460023236000F0B4FA82
:101A2C00B0F1FF3F00D070BD2368002BFBD02B60C2
:101A3C00F9E7C04670B540F25054C2F200040546B6
:101A4C0008460023236000F0A9FAB0F1FF3F00D054
:101A5C0070BD2368002BFBD02B60F9E7062000F04B
:101A6C002DF8012000F08AFA1F2970B504460D46A6
:101A7C001FD8426CA2B152F821308BB1012B0DD082
:101A8C00B3F1FF3F06D00024084642F821409847A6
:101A9C00204670BD173303600120FAE70020F8E7F9
:101AAC00204600F089F82A460146204600F088F8C6
:101ABC00EFE7162303604FF0FF30EAE740F2140320
:101ACC000146C2F2000310B51868FFF7CDFF10BD38
:101ADC0070B5456C04460DB1002070BD8021FEF739
:101AEC0029FE606430B12B462A46C2500433802B49
:101AFC00FBD1F1E70138F0E740F21403C2F2000326
:101B0C0010B51868FFF7E4FF10BDC0461F2970B56B
:101B1C0004460D4611D8426CC2B1AB00D11852F834
:101B2C0025307BB1B3F1FF3F0ED0012B08D0002440
:101B3C0028460C609847204670BD4FF0FF30FBE7FD
:101B4C000320F9E70120F7E70220F5E7FFF7C0FFD4
:101B5C000028F2D1626CE0E740F214030146C2F2B5
:101B6C00000310B51868FFF7D1FF10BD1F2970B521
:101B7C0005460C46164606D8436C4BB153F8240068
:101B8C0043F8246070BD162303604FF0FF30F9E773
:101B9C00FFF79EFF08B96B6CF0E74FF0FF30F1E7F1
:101BAC000A4640F21401C2F20001034610B508685F
:101BBC001946FFF7DBFF10BD10B500F0EBF910BDB7
:101BCC0070B540F25054C2F2000405460846114666
:101BDC000023236000F0D4F9B0F1FF3F00D070BDBA
:101BEC002368002BFBD02B60F9E7C04610B504200E
:101BFC00012100F0D5F801214FF4804000F0D0F81D
:101C0C0000F02AF800F048F80248FEF7A3FA00208A
:101C1C0010BDC046842000080A2810B504460CD11B
:101C2C000C480D2100F0D8F80A48802100F0D8F8B3
:101C3C000028F9D007480A2101E00648E1B200F07B
:101C4C00CBF80448802100F0CBF80028F9D02046CE
:101C5C0010BDC0460038014037B54FF400730D4C31
:101C6C00ADF8043001AD03238DF806302046153352
:101C7C0029468DF8073000F0FFF84FF48063ADF87B
:101C8C0004302046042329468DF8073000F0F4F880
:101C9C003EBDC046000801401FB50D4C4FF4E1336A
:101CAC000093A3F5E133ADF80430ADF80630ADF890
:101CBC000830ADF80C3020464FF00C036946ADF8F7
:101CCC000A3000F093F82046012100F077F81FBD90
:101CDC00003801402D4A10B55368044603F00C033C
:101CEC00042B02D0082B30D101E0294B2EE0536895
:101CFC005268C3F383430D2B01D1062000E0981CDE
:101D0C0012F4803F01D1234B0CE02049CA6ACB6A04
:101D1C0012F4803F03F00F0303F1010C04D11C4BB0
:101D2C00B3FBFCF3434311E0CB6ACA6AC3F303135E
:101D3C0017490133C2F30322B1FBF3F102324A43D8
:101D4C00B2FBFCF24243226001E0134B23600F48CC
:101D5C00124943682268C3F30313CB5CDA40626018
:101D6C004368C3F30223CB5C32FA03F3A3604368EA
:101D7C00C3F3C223CB5CDA40E2604368C3F3813324
:101D8C00C9180B7CB2FBF3F2226110BD00100240AB
:101D9C0040787D0100093D0000127A00000000200F
:101DAC0021B1054A936940EA030303E0024A9369AF
:101DBC0023EA0003936170470010024021B183892C
:101DCC009BB243F4005304E0838923F400531B04B7
:101DDC001B0C83817047C046C905C90D81807047B3
:101DEC00038819420CBF002001207047038ACA885F
:101DFC0023F440531B041B0C1343038282890B896D
:101E0C0030B50D46898822F4B0520B43698922F013
:101E1C000C020B431204120C9BB213438381838A72
:101E2C00AA8923F440731B041B0C134387B004468C
:101E3C00838201A8FFF74EFF0E4B9C420CBF049B04
:101E4C00039B19225A432B6864209B00B2FBF3F2CC
:101E5C00B2FBF0F109010B0900FB13231B01323318
:101E6C00B3FBF0F303F00F030B439BB2238107B0DA
:101E7C0030BDC04600380140F0B5CD780E8815F065
:101E8C00100F18BF8B7805F00F0718BF1F4316F003
:101E9C00FF0F20D004684FF0000C012303FA0CF361
:101EAC0003EA0601994210D14FEA8C020F239340AA
:101EBC0017FA02F224EA0303282D43EA020401D1A3
:101ECC00416102E0482D08BF01610CF1010CBCF12D
:101EDC00080FE2D10460FF2E21D944684FF0000CAA
:101EEC0001230CF10802934003EA0601994210D138
:101EFC004FEA8C020F23934017FA02F224EA0303F1
:101F0C00282D43EA020401D1416102E0482D08BFAB
:101F1C0001610CF1010CBCF1080FE1D14460F0BD82
:101F2C00002103E0094B5B58435004310848094B2E
:101F3C0042189A42F6D3084A02E0002342F8043BC6
:101F4C00064B9A42F9D3FFF751FE7047B8200008B0
:101F5C000000002018050020180500205405002062
:101F6C00FEE700004FF000007047C0464FF0000045
:101F7C007047C0464FF0FF307047C046FEE7C04682
:101F8C004FF0FF307047C0464FF400534B604FF09A
:101F9C00000070474FF0FF307047C0464FF0010013
:101FAC007047C04670B50D46161E09DD4FF0000493
:101FBC0015F9010BFFF730FE04F10104B442F7D11F
:101FCC00304670BD10B540F24C52C2F2000213689C
:101FDC0023B940F25453C2F20003136040F24C5345
:101FEC00C2F200031A6810446B4698420BD94FF0AA
:101FFC00010042F2AC01C0F600014FF00802FFF7FD
:10200C00D1FFFFF72BFD40F24C53C2F200031860D6
:10201C00104610BD00000000000000000000000091
:10202C0000000000000000000000000000000000A4
:10203C000000000000000000000000000000000094
:10204C000000000000000000000000000000000084
:10205C000000000000000000000000000000000074
:10206C000000000000000000000000000000000064
:10207C00000000001800002048656C6C6F20576F42
:10208C00726C6421202D204D616E676F2053746F2C
:10209C00727920322E3000000A000000430000004C
:0C20AC0048265320636F6C0A00000000FF
:1020B80000000000010203040102030406070809E6
:1020C8000204060818000020000000002020000874
:1020D8004020000860200008000000000000000008
:1020E8000000000000000000A82000080000000018
:1020F80000000000000000000000000000000000D8
:1021080000000000000000000000000000000000C7
:1021180000000000000000000000000000000000B7
:1021280000000000000000000000000000000000A7
:102138000000000000000000000000000000000097
:102148000000000000000000000000000000000087
:102158000000000000000000000000000000000077
:102168000000000000000000000000000000000067
:102178000000000000000000000000000000000057
:102188000000000000000000000000000000000047
:102198000000000000000000000000000000000037
:1021A8000000000000000000000000000000000027
:1021B8000000000000000000000000000000000017
:1021C8000801002008010020100100201001002053
:1021D8001801002018010020200100202001002003
:1021E80028010020280100203001002030010020B3
:1021F8003801002038010020400100204001002063
:102208004801002048010020500100205001002012
:1022180058010020580100206001002060010020C2
:102228006801002068010020700100207001002072
:102238007801002078010020800100208001002022
:1022480088010020880100209001002090010020D2
:102258009801002098010020A0010020A001002082
:10226800A8010020A8010020B0010020B001002032
:10227800B8010020B8010020C0010020C0010020E2
:10228800C8010020C8010020D0010020D001002092
:10229800D8010020D8010020E0010020E001002042
:1022A800E8010020E8010020F0010020F0010020F2
:1022B800F8010020F80100200002002000020020A0
:1022C800080200200802002010020020100200204E
:1022D80018020020180200202002002020020020FE
:1022E80028020020280200203002002030020020AE
:1022F800380200203802002040020020400200205E
:10230800480200204802002050020020500200200D
:1023180058020020580200206002002060020020BD
:10232800680200206802002070020020700200206D
:10233800780200207802002080020020800200201D
:1023480088020020880200209002002090020020CD
:102358009802002098020020A0020020A00200207D
:10236800A8020020A8020020B0020020B00200202D
:10237800B8020020B8020020C0020020C0020020DD
:10238800C8020020C8020020D0020020D00200208D
:10239800D8020020D8020020E0020020E00200203D
:1023A800E8020020E8020020F0020020F0020020ED
:1023B800F8020020F802002000030020000300209B
:1023C8000803002008030020100300201003002049
:1023D80018030020180300202003002020030020F9
:1023E80028030020280300203003002030030020A9
:1023F8003803002038030020400300204003002059
:102408004803002048030020500300205003002008
:1024180058030020580300206003002060030020B8
:102428006803002068030020700300207003002068
:102438007803002078030020800300208003002018
:1024480088030020880300209003002090030020C8
:102458009803002098030020A0030020A003002078
:10246800A8030020A8030020B0030020B003002028
:10247800B8030020B8030020C0030020C0030020D8
:10248800C8030020C8030020D0030020D003002088
:10249800D8030020D8030020E0030020E003002038
:1024A800E8030020E8030020F0030020F0030020E8
:1024B800F8030020F8030020000400200004002096
:1024C8000804002008040020100400201004002044
:1024D80018040020180400202004002020040020F4
:1024E80028040020280400203004002030040020A4
:1024F8003804002038040020400400204004002054
:102508004804002048040020500400205004002003
:1025180058040020580400206004002060040020B3
:102528006804002068040020700400207004002063
:102538007804002078040020800400208004002013
:1025480088040020880400209004002090040020C3
:102558009804002098040020A0040020A004002073
:10256800A8040020A8040020B0040020B004002023
:10257800B8040020B8040020C0040020C0040020D3
:10258800C8040020C8040020D0040020D004002083
:10259800D8040020D8040020E0040020E004002033
:1025A800E8040020E8040020F0040020F0040020E3
:1025B800F8040020F8040020000500200005002091
:0825C800FFFFFFFF000002000D
:040000050800010CE2
:00000001FF
