:020000040800F2
:10000000005000209D010008DD010008DD0100080E
:10001000DD010008DD010008DD010008000000002E
:10002000000000000000000000000000DD010008EA
:10003000DD01000800000000DD010008DD0100080E
:10004000DD010008DD010008DD010008DD01000818
:10005000DD010008DD010008DD010008DD01000808
:10006000DD010008DD010008DD010008DD010008F8
:10007000DD010008DD010008DD010008DD010008E8
:10008000DD010008DD010008DD010008DD010008D8
:10009000DD010008DD010008DD010008DD010008C8
:1000A000DD010008DD010008DD010008DD010008B8
:1000B000DD010008DD010008DD010008DD010008A8
:1000C000DD010008DD010008DD010008DD01000898
:1000D000DD010008DD010008DD010008DD01000888
:1000E000DD010008DD010008DD010008000000005E
:1000F0000000000000000000000000000000000000
:0C01000000000000000000005FF808F1A3
:10010C0082B0019002E0019B013B0193019B002B0B
:10011C00F9D102B07047C046194A10B51368194896
:10012C0043F008031360184A136843F0100313607C
:10013C001032136843F400731360FFF7E1FF1148AA
:10014C00FFF7DEFF0F48FFF7DBFF0E48FFF7D8FF86
:10015C000C48FFF7D5FF0B48FFF7D2FF0948FFF714
:10016C00CFFF0848FFF7CCFF0648FFF7C9FF05484B
:10017C00FFF7C6FF054A136843F400731360FEE7EC
:10018C0018100240C44E0C00040C0140100C01402D
:10019C00002103E0094B5B58435004310848094BDC
:1001AC0042189A42F6D3084A02E0002342F8043B74
:1001BC00064B9A42F9D3FFF7AFFF7047E0010008F6
:1001CC0000000020000000200000002000000020A3
:0401DC00FEE700003A
:040000050800010CE2
:00000001FF
