:020000040800F2
:100000000004002031580008D93F0008DD3F0008F7
:10001000E13F0008E53F0008E93F0008000000005C
:10002000000000000000000000000000ED3F00089C
:10003000F13F000800000000F53F0008F93F00080C
:100040000140000805400008094000080D40000874
:100050001140000815400008194000083940000808
:10006000594000085D4000086140000865400008F4
:10007000694000086D4000087140000875400008A4
:10008000794000087D400008814000088540000854
:10009000894000088D400008914000089540000804
:1000A000B1400008B5400008B9400008BD40000854
:1000B000C1400008C5400008C9400008CD40000804
:1000C000D1400008D5400008D9400008DD400008B4
:1000D000E1400008E5400008E9400008ED40000864
:0C00E000F1400008F5400008F94000085D
:1000EC002DE9F04FA5B016001C00DFF83426D2E93C
:1000FC000023CDE91223049004AD69600020A862AE
:10010C000DF150096FF0004B00E0BE190020ADF866
:10011C00020012AB4FF0FF3231000DF1020005F07E
:10012C00E5F90700012804DA3078471EBF41FF4388
:10013C00FF0FBDF80200252801D17A1E00E03A001D
:10014C00012A0ADB310002A801F04AF8002804D584
:10015C004FF0FF3025B0BDE8F08FBDF80200252828
:10016C0007D1002028616861A861E8612862686293
:10017C0005E00028C9D1A86AECE740F0010016F8A8
:10018C00011F2029F9D023290DD02B2904D02D298A
:10019C0006D030290BD00DE040F0020080B2EEE723
:1001AC0040F00400FAE740F0080080B2E7E740F0C6
:1001BC001000F3E72A290DD12268111D2160116866
:1001CC002963002904D54A422A6340F0040080B216
:1001DC00761C10E0002129630A2307E0296B59459E
:1001EC0003D001FB032130392963761C3278302A85
:1001FC0001D33A2AF2D331782E2903D04FF0FF31B4
:10020C00E9621BE016F8011F2A2906D12268111D8C
:10021C0021601168E962761C10E00021E9620A2372
:10022C0007E0E96A594503D001FB03213039E96243
:10023C00761C3278302A01D33A2AF2D3A886317848
:10024C00DFF8E00405F0FAFA08B116F8010B8DF8A6
:10025C0046009DF84600682806D1307868280CD1F5
:10026C0062208DF8460007E06C2806D130786C28A7
:10027C0003D171208DF84600761C14A8E86096F81E
:10028C0000C06046413800F0F080001F022840F2A8
:10029C00EC80133800F0A080093800F0E680801E56
:1002AC001AD0401E3DD0401E022840F2DE80001FB6
:1002BC0037D0401F00F01B81401E00F08D80401E87
:1002CC0000F05481C01E00F05F81801E00F084801D
:1002DC00C01E00F0818079E19DF846006C2809D0A1
:1002EC002869411C29612268111D2160116800F8E0
:1002FC00091075E12168081D2060086880B2ADF80E
:10030C0004000020ADF806004FF0FF30E86201A9B0
:10031C0002A800F009FA002840F162814FF0FF308A
:10032C005FE19DF846006C281BD071280BD120682A
:10033C00C01D072188432060014601F108002060A0
:10034C00D1E9002312E06A280BD12068C01D0721D7
:10035C0088432060014601F108002060D1E90023A8
:10036C0004E02168081D20600A68D3179DF8460038
:10037C00682801D112B207E0622801D152B203E021
:10038C00742801D07A2800D1D317002B06DC00DBAF
:10039C0004D228692D2100F809100FE0A88E10F066
:1003AC00020F04D028692B2100F8091006E010F088
:1003BC00010F06D02869202100F809102869401C7B
:1003CC002861286914A94018A860CDE90223614668
:1003DC0002A800F01BFB03E19DF846006C281BD023
:1003EC0071280BD12068C01D07218843206001466D
:1003FC0001F108002060D1E9002312E06A280BD13A
:10040C002068C01D072188432060014601F10800C7
:10041C002060D1E9002304E02168081D20600A68EF
:10042C0000239DF84600682801D192B207E06228AB
:10043C0001D1D2B203E0742801D07A2800D1002374
:10044C00A88E10F0080FBCD00BB9002AB9D04CF014
:10045C0020007828B5D12869302100F809102869C6
:10046C00401C286100F809C0A8E79DF846004C28FC
:10047C0020680AD1C01D072188432060014601F184
:10048C0008002060D1E9000109E0C01D0721884364
:10049C002060014601F108002060D1E90001CDE99E
:1004AC000201BDF80E0010F4004F04D028692D2174
:1004BC0000F809100FE0A88E10F0020F04D0286984
:1004CC002B2100F8091006E010F0010F06D0286966
:1004DC00202100F809102869401C2861286914A9FA
:1004EC004018A860614602A800F02AFB78E09DF84D
:1004FC00460062280CD068282AD06A2818D06C28AC
:10050C001FD071280BD074281BD07A2819D026E064
:10051C00A86A2268111D21601168087060E0A86A41
:10052C00C11723681A1D22601A68C2E9000157E03E
:10053C00A86AC11723681A1D22601A68C2E9000153
:10054C004EE02168081D20600868A96A016047E038
:10055C00A86A2268111D21601168088040E021689A
:10056C00081D20600868A96A016039E02168081D2F
:10057C0020600A6814A8A8604FF0FF3000211040DA
:10058C00CDE90201782123E79DF846006C2821680B
:10059C0013D0081D20600868A860EA6A002A02D5FA
:1005AC0004F056FE07E0002104F078FC10B1A968B5
:1005BC00401A00E0E86A686112E0081D20600968D2
:1005CC0002A800F0B1F800280AD5A7E62869411C5A
:1005DC002961BCF1000F08BF4FF0250C00F809C0D1
:1005EC000020761C00287FF4B3AD286B2969401AD3
:1005FC00E969401A6969401A296A401AA969401ABE
:10060C00696A471AA88E10F0040F12D120208DF8B9
:10061C0000004FF00008012F0BDB012200A902A8FB
:10062C0000F0DEFD00287FF493AD08F10108B84519
:10063C00F3DB2A6914A902A800F0D2FD00287FF48C
:10064C0087AD30208DF80000D5F81CA04FF00008C5
:10065C00BAF1010F0BDB012200A902A800F0C0FDCA
:10066C0000287FF475AD08F10108D045F3DB6A6909
:10067C00A96802A800F0B4FD00287FF469AD302011
:10068C008DF80000D5F820A04FF00008BAF1010F4A
:10069C000BDB012200A902A800F0A2FD00287FF4C8
:1006AC0057AD08F10108D045F3DBAA696869A96860
:1006BC00411802A800F094FD00287FF449AD3020C9
:1006CC008DF80000D5F824A04FF00008BAF1010F06
:1006DC000BDB012200A902A800F082FD00287FF4A8
:1006EC0037AD08F10108D045F3DBA88E10F0040FEC
:1006FC003FF40CAD20208DF800004FF00008012FC6
:10070C00FFF604AD012200A902A800F069FD002843
:10071C007FF41EAD08F10108B845BFF6F7ACF1E760
:10072C00E85F0008F05F00082DE9F04F95B0050078
:10073C008B466E6B002E48BF6FF0004605F0B0FC88
:10074C00A96B40180190B048D0E90001CDE9030134
:10075C00A88F10F0040F02D10198412806D20DF198
:10076C001409402001900020029009E004F082F866
:10077C008146B9F1000FF6D14FF0FF3041E1361B45
:10078C00012EC0F2B88003AABBF800100DF10100D5
:10079C0004F048FF040004D4BBF8000028B9641E20
:1007AC0003D54FF0FF300290A5E0A642C0F2A38023
:1007BC00A86901992218914280F08E800021A963CA
:1007CC004142686A081AE969401AA96A401A296AFA
:1007DC00401AE96A471AA88F10F0040F11D1202093
:1007EC008DF800004FF00008012F0ADB012200A950
:1007FC00280000F0F5FC00286CD108F10108B84580
:10080C00F4DBAA694946280000F0EAFC002861D113
:10081C0030208DF80000D5F824A04FF00008BAF174
:10082C00010F0ADB012200A9280000F0D9FC0028E6
:10083C0050D108F10108D045F4DBEA692969280098
:10084C0000F0CEFC002845D130208DF80000D5F802
:10085C0028A04FF00008BAF1010F0ADB012200A911
:10086C00280000F0BDFC002834D108F10108D04567
:10087C00F4DB2A6AE86929694118280000F0B0FC09
:10088C0040BB30208DF80000D5F82CA04FF00008AC
:10089C00BAF1010F09DB012200A9280000F0A0FC2D
:1008AC00C0B908F10108D045F5DBA88F10F0040F92
:1008BC0010D020208DF800004FF00008012F09DB2C
:1008CC00012200A9280000F08BFC18B908F10108DE
:1008DC00B845F5DB0020A86122000DF10101A869E3
:1008EC00484404F029F9A8692018A8613BF8020BC8
:1008FC0000287FF444AFA86BA969401A696A401AB2
:10090C00E969401AA96A401A296A401AE96A441A24
:10091C00A88F10F0040F0FD120208DF800000026B6
:10092C00012C09DB012200A9280000F059FC002849
:10093C005DD1761CA642F5DBAA694946280000F079
:10094C004FFC002853D130208DF800006E6A002730
:10095C00012E09DB012200A9280000F041FC00282F
:10096C0045D17F1CB742F5DBEA692969280000F004
:10097C0037FC00283BD130208DF80000AE6A0027F0
:10098C00012E09DB012200A9280000F029FC002817
:10099C002DD17F1CB742F5DB2A6AE8692969411819
:1009AC00280000F01DFC10BB30208DF80000EE6A12
:1009BC000027012E08DB012200A9280000F010FC02
:1009CC00A8B97F1CB742F6DBA88F10F0040F0ED02D
:1009DC0020208DF800000026012C08DB012200A944
:1009EC00280000F0FDFB10B9761CA642F6DB0020B7
:1009FC00A861A86305A881451CBF484603F0DEFF2B
:100A0C00029815B0BDE8F08FC86000082DE9FA47D0
:100A1C0086B08046D8F8140000909DF818006F2816
:100A2C0002D14FF0080907E040F0200078280CBFF5
:100A3C004FF010094FF00A093C24D8E900010600D8
:100A4C000F009DF81820642A01D0692A09D10029C9
:100A5C0007DC00DB05D200200021801BB941060019
:100A6C000F001FB916B9D8F8340050B3651E2C000E
:100A7C004FEAE97ACDE9029A30003900DDE9022328
:100A8C0003F0B4FECDE90401B246DDE90423DDE94F
:100A9C000201A2FB00675046801B3030C0B23A28DE
:100AAC0003D39DF818105139081800996854DDE9E2
:100ABC00046707B92EB1D8F8100000996118884264
:100ACC00D4D3B9F1080F0CD1B8F83C0010F0080FD2
:100ADC0007D00098205C302803D0641E0098302189
:100AEC002154C4F13C00C8F81C0000996118C8F8E6
:100AFC001010D8F8341088420ADA081AC8F8240002
:100B0C00B8F83C004FF6EF710840A8F83C0014E030
:100B1C00002912D5B8F83C1001F0140110290CD1A1
:100B2C00D8F83810D8F81820891AD8F82420891A3F
:100B3C000C1A012CA8BFC8F8244008B0BDE8F087F7
:100B4C002DE9F24F8EB0060004AFD6E90001CDE9D5
:100B5C0000019DF8380040F020008DF80800612855
:100B6C000BD0706B002801D5062005E005D19DF84F
:100B7C000800672801D101207063F18847F6F070F6
:100B8C000840001140F2FF7290421CD111F00F0F7F
:100B9C0005D1B08818B9708808B9308848B10320DD
:100BAC00F0619DF83800612835D37B2833D2D5A16C
:100BBC0032E00320F0619DF83800612831D37B28A6
:100BCC002FD2D1A128E0012804DA300003F0A6FCD2
:100BDC0001281DDAF18848F20F02114043F6E07249
:100BEC001143F180A0F2FE354FF0FF309DF8081054
:100BFC0061291DD13269511C31613021117031696B
:100C0C004A1C32619DF83820612A0CD178220BE005
:100C1C0000250020EAE7CFA10322306903F08CFF06
:100C2C0095E1CDA1F8E758220A70B169891CB16130
:100C3C0010B90024002580E19DF80800612840F0DF
:100C4C009980706B002801D5212401E0441C24B24A
:100C5C0004F10108D6E900ABDDE900010022002314
:100C6C0004F060FB2EBFCDE900AB8BF0004BCDE95F
:100C7C0000AB2D1F00208DF810000DF11109B8F1FB
:100C8C00010F35DBDDE900010022002304F062FBDB
:100C9C002ED21C2100A803F0BBFADDE9000104F000
:100CAC0029F90700A8F10708B8F1010F09DB04F0D6
:100CBC0069FB02000B00DDE9000102F0BBFECDE98F
:100CCC00000109F107000721012F0ADB491E08D496
:100CDC0007F00F0200F8012D3F11F5E7002200F894
:100CEC00012D491EFAD500F10709B8F1010FC9DA37
:100CFC000DF11100A9EB00000DF11107A042B8BFD6
:100D0C0004B2002C2FD4844206DA04A820184078B0
:100D1C00082801D30F2000E00020210004AA8A1823
:100D2C0001E0641E24B2491E12F801398342F8D046
:100D3C000F2804D104A808184278521C42700029CC
:100D4C0003D504AF641C24B22D1D200009E0C15D45
:100D5C003031C9B23A2903D39DF838203A3A5118A8
:100D6C00C155401EF3D5706B002840F1E680601E23
:100D7C007063E2E0DDE900010022002304F0D2FA06
:100D8C003EBFDDE9000181F00041CDE900012DB24B
:100D9C0047F297506843714990FBF1F52DB2C5F1BC
:100DAC0007009046DFF8B89101281BDB0400DDE951
:100DBC0000AB14F0010F07D05046594642464B4643
:100DCC0002F066FD82468B46641040464946424618
:100DDC004B4602F05DFD80468946002CE9D1CDE9F9
:100DEC0000AB22E044429246DFF878B113E014F0F5
:100DFC00010F07D05046594642464B4602F048FD7B
:100E0C0082468B4664104046494642464B4602F0A9
:100E1C003FFD80468946002CE9D1DDE900015246B0
:100E2C005B4602F075F8CDE900019DF808006628D4
:100E3C0002D105F10A0000E00620716B4418142C55
:100E4C00A8BF132430208DF810000DF11107012CD0
:100E5C002DDBDFF8149111E0DDE9000104F060F8FE
:100E6C0004F09AFA02000B00DDE9000102F0E2FD49
:100E7C0000224B4602F00CFDCDE90001DDE900013A
:100E8C0004F04EF807F1080108220A23B0FBF3FC2A
:100E9C00E6460EFB1303DBB26046303301F8013D2E
:100EAC00521EF2D101F10807083C012CD4DA0DF1E5
:100EBC001100381A0DF111079DF81110302905D1C8
:100ECC00401E6D1E17F8011F3029F9D09DF808102F
:100EDC00662902D12DB2691C04E0652901D10121DA
:100EEC0000E00021726B8C1824B2A042B8BF04B28F
:100EFC00002C22D4844209DAE05D352806D339204F
:100F0C0005E000BF6E616E00696E66003020210046
:100F1C00CA19521E01E0641E24B2491E12F801398E
:100F2C008342F8D0392802D1C85D401CC85500292D
:100F3C0003D57F1E641C24B26D1C2DB220B523007A
:100F4C003A009DF84010300000F010F802B00FB0DD
:100F5C00BDE8F08F4E414E00494E4600A086010080
:100F6C00000024400000F03F84D797412DE9F04762
:100F7C0086B00400884615001E00BDF9387004F0D8
:100F8C0007FE406A90F800A0D4F83490012E01DAE4
:100F9C00012692A548F0200066280AD0672840F068
:100FAC0086806FF003018F42C0F287804F4580F23C
:100FBC0084807F1C66280CD0A08F10F0080F02D103
:100FCC004E45B8BFB1463FB2B9EB070948BF4FF029
:100FDC0000092069E1693FB2012F25DA4A1C302350
:100FEC000B54B9F1010F03DAA18F11F0080F02D0E5
:100FFC0002F800A0521CE26179428945B8BFC9F1E0
:10100C0000073FB27942A162B944B145B8BF4E4620
:10101C0036B2266232002900E369181803F08CFD01
:10102C00A9EB0600E062C3E00818BE4218DA3200F1
:10103C00290003F081FDE1697118E161B81BA06220
:10104C00B9F1010F03DAA08F10F0080F05D0206959
:10105C0001F800A0206A401C2062C4F82C90A7E084
:10106C003A00290003F068FDE0693818E061F61BCE
:10107C00B9F1010F03DAA18F11F0080F04D0411C54
:10108C00E161216900F801A036B2B145B8BF4E4606
:10109C0036B232007919E0692369C01803F04CFDAF
:1010AC00E0693018E061A9EB0600A06280E0B8F1BD
:1010BC00610F16D14FF0700818E04E4504DAA18F7D
:1010CC0011F0080F08BFB146B9F1010948BF4FF044
:1010DC000009B8F1670F14BF4FF045084FF06508D1
:1010EC0004E0B8F1410F08BF4FF05008E1694A1C09
:1010FC00206915F8013B0B54B9F1010F03DAA18FEC
:10110C0011F0080F02D002F800A0521CE261B9F1F4
:10111C00010F11DB761E36B2B145B8BF4E4636B262
:10112C0032002900E369181803F006FDE069301855
:10113C00E061A9EB0600A062E0692169451805F899
:10114C00018B002F03D42B2005F8010B04E02D207C
:10115C0005F8010B3800474200260DF1080909E09B
:10116C000A22390000A804F009FD019809F8010BC6
:10117C00009F761C3FB2012FF2DA022E06DA48F0FD
:10118C002000652802D1302005F8010B4EB9302023
:10119C0005F8010B07E0761E02A8305C303005F82C
:1011AC00010B012EF7DAE06921694018281A206238
:1011BC00A08F00F0140010280DD1A069E169081867
:1011CC00A16A0818216A0818E16A0818A16B8842FC
:1011DC0001DA081A606206B0BDE8F0873000000042
:1011EC00F8B505000E00140000208CB14FF0FF374D
:1011FC0005E0286B401C28630020641E08D016F8FC
:10120C00011BE868AA689047E8600028F1D1380013
:10121C00F2BD000080B503F025FA03F009FA322084
:10122C0001F058FC03F00CFA322001F053FC03F0EF
:10123C00FFF9322001F04EFC03F002FA322001F0EB
:10124C0049FC03F0F5F901BD80B503F00BFA03F08E
:10125C00E3F9322001F03EFC03F0E4F9322001F016
:10126C0039FC03F0D9F9322001F034FC03F0DAF93F
:10127C00322001F02FFC03F0CFF901BD80B503F053
:10128C00F1F903F0B9F9322001F024FC03F0BCF9B8
:10129C00322001F01FFC03F0AFF9322001F01AFCF0
:1012AC0003F0B2F9322001F015FC03F0A5F901BDF1
:1012BC0010B5094C0BE0207880B200F069FB80B2CD
:1012CC000300626821780F4804F000F90834207894
:1012DC00FF28F0D110BD00BF100C002010B5084C39
:1012EC000AE0207800F032FD80B2030062682178B9
:1012FC00044804F0EBF808342078FF28F1D110BD35
:10130C00680A00205857000880B5204803F03CFDBF
:10131C00DFF840054BF6EF610180DFF8380501F08E
:10132C0003FA012804D14FF48E71184803F048FDDC
:10133C0001F0CAFA4FF49071144803F02DFD0DE042
:10134C0013480178134804F0C1F801F0B3FA40B225
:10135C000100114804F0BAF8FFF776FF01F07EFAAD
:10136C000028FBD04FF49371084803F015FD0022C0
:10137C000121074801F076FA0128E1D240F231113F
:10138C00024803F013FDFFF779FFE7E764600008FC
:10139C00650A0020785F00085055000880B5234886
:1013AC0003F0F2FCDFF8AC0442F220510180DFF8CC
:1013BC00A40401F0B9F9012804D14FF4A7711B481A
:1013CC0003F0FEFC01F08CFAF721302000F0D6FC83
:1013DC0017486021017006E040F26911134803F0D0
:1013EC00E5FCFFF74BFF4FF4FA7001F073FB10486C
:1013FC0000787A2803D10E486121017004E00C4872
:10140C000078401C0A49087009480178094804F022
:10141C005DF8012206494BF6EF6001F0B5F9C0B258
:10142C000028D9D1FFF7F6FEDDE700BF7060000899
:10143C00640A0020385B000870B596B000250026C1
:10144C0005A8402104F05AFE002400A8102104F045
:10145C0055FEDFF800044BF6EF610180DFF8F40372
:10146C0001F062F9012804D14FF4CE713A4803F02F
:10147C00A7FC01F029FA31E0701C009000200190CB
:10148C00002002900198401C0190280010F00F0FD2
:10149C0024D1FFF7D9FEBDF90C00202190FBF1F00F
:1014AC0003F09AFE03F07CFD03B4049803F09EFE57
:1014BC00060004980399081803F098FE0100300008
:1014CC0002F078FB254902F033FF03F069FD03B409
:1014DC00069A0599224803F0F9FF04B06D1C01F03F
:1014EC00BDF90028FBD004AA68211E4801F0BAF906
:1014FC000128CAD31B480668BDF80C00E4B205A944
:10150C0031F81410401AADF80C00E4B205A8BDF87F
:10151C00101020F81410BDF80C00E4B205A931F835
:10152C0014100818ADF80C00601C0400C0B2202880
:10153C0000D100240098B04203D10098401C0090C8
:10154C00A0E70098B04297D2029830180099401A40
:10155C000290701C009095E74C5B00080000C8429C
:10156C00CC5200082409002070B500260024002568
:10157C00B84842F220510180B64801F0D5F8012854
:10158C0004D140F2F311384803F01AFCF721302053
:10159C0000F0F4FB6821354803F098FF344803F061
:1015AC0095FF344803F092FF334803F08FFF334824
:1015BC0003F08CFF324803F089FFA74801F032FB9F
:1015CC000600A64803F082FFF6B2312E06D0322E6A
:1015DC0007D0332E08D0342E08D009E04FF47A7699
:1015EC0008E042F2107605E0264E03E0264E01E0BC
:1015FC004FF47A763100254803F068FF01F070F95A
:10160C00234800210160002004E0C0B220494118A9
:10161C000871401CC0B26428F7D31E4803F056FF73
:10162C008D4801F0FFFA16E0682219494BF6EF607D
:10163C0001F0AAF816480068401C154908602800FB
:10164C0010F00F0F06D1FFF7E5FD114801681248A5
:10165C0003F03CFF641C6D1CB442E5D30025002450
:10166C000B4800210160D8E770570008C0530008F0
:10167C00605B0008745B000888570008A0570008DE
:10168C00B8570008A086010040420F006C550008B6
:10169C00BC080020EC5300087C60000810B55648CC
:1016AC0003F072FB554803F011FF554803F00EFF91
:1016BC00544803F00BFF544803F008FF534803F061
:1016CC0005FF654801F0AEFA0400644803F0FEFE25
:1016DC00E4B2563C21004E4803F0F8FE0B2C04DB20
:1016EC001B2C02DA5B48047106E01921494803F00F
:1016FC00EDFE5848192101714FF41B6240F665113B
:10170C00454803F0E3FE53480079052140F62E12BC
:10171C0000FB0121414803F0D9FE4E4842F207017B
:10172C0041804C48012141714A483D49816001F09A
:10173C00E9F901F001FF01F033FFC0B201003948B3
:10174C0003F0C4FE01F032FFC0B20100364803F0D2
:10175C00BDFE364803F0BAFE354803F0B7FE3548F7
:10176C0003F0B4FE344803F0B1FE344803F0AEFE8F
:10177C00304803F0ABFE324803F0A8FE314803F0CA
:10178C00A5FE2C4803F0A2FE2F4803F09FFE2F4825
:10179C0003F09CFE274803F099FE2D4803F096FEBB
:1017AC002D4801F03FFA04002C4803F08FFEE4B200
:1017BC00200031280AD032280BD033280CD0342802
:1017CC000DD035280ED036280FD010E0FFF786FD4F
:1017DC000DE0FFF76DFD0AE0FFF796FD07E0FFF760
:1017EC00DDFD04E0FFF728FE01E0FFF7BDFEE4B2EB
:1017FC00782CAED110BD00BF88600008D05700080F
:10180C00E45000082451000864510008A451000859
:10181C00E85700080058000818540008B85400088D
:10182C00600E0020985F0008A85F0008885500082B
:10183C00B85F000818580008A4550008C0550008E7
:10184C00C85F0008D85F0008DC550008F855000890
:10185C0094600008240A002000380140885F0008CA
:10186C0080B5C0B202F07EFF02F092FF02F08AFF58
:10187C0002BD000038B505000C0008E0002002F0A5
:10188C0071FF02F085FF02F07DFF2070641C2800C0
:10189C00451E80B20028F1D131BD00002DE9F04188
:1018AC0006000F0014001D00BDF818801021DFF891
:1018BC00C80400F0DDFB57EA0600C0B2FFF7D0FF0A
:1018CC0006002000C0B2FFF7CBFFADB2280AC0B2B1
:1018DC001FFA88F85FEA182151EA0010C0B2FFF72E
:1018EC00BFFF2800C0B2FFF7BBFF4046C0B2FFF7F6
:1018FC00B7FF1021DFF8800400F090FB3000C0B27D
:10190C00BDE8F08138B505000C0005E0207802F048
:10191C0029FF641C02F03CFF2800451E80B2002801
:10192C00F4D131BD10B504001021DFF84C0400F0E7
:10193C009FFB2000C0B2FFF793FF04001021DFF8DB
:10194C00380400F06BFB2000C0B210BDF8B50500E8
:10195C000E0014001021DFF8200400F089FBADB25A
:10196C00280A50F01000C0B2FFF77AFF07002800D9
:10197C00C0B2FFF775FF2100300080B2FFF77AFF8D
:10198C001021DFF8F40300F049FB3800C0B2F2BDBF
:10199C0010B504001021DFF8E00300F069FBA4B2DD
:1019AC00200A50F01000C0B2FFF75AFF2000C0B25E
:1019BC00FFF756FF0020FFF753FF04001021DFF85C
:1019CC00B80300F02BFB2000C0B210BDF8B5050029
:1019DC000E0014001021DFF8A00300F049FBADB29B
:1019EC00280A50F02000C0B2FFF73AFF0700280089
:1019FC00C0B2FFF735FF2100300080B2FFF782FF45
:101A0C001021DFF8740300F009FB3800C0B2F2BDFE
:101A1C0070B504000D001021DFF85C0300F028FB0A
:101A2C00A4B2200A50F02000C0B2FFF719FF060044
:101A3C002000C0B2FFF714FF2800C0B2FFF710FF60
:101A4C001021DFF8340300F0E9FA3000C0B270BDA9
:101A5C0070B504000D001021DFF81C0300F008FB2A
:101A6C00A4B2200A50F02000C0B2FFF7F9FE060025
:101A7C002000C0B2FFF7F4FE2800C0B2FFF7F0FE62
:101A8C00ADB2280AC0B2FFF7EBFE1021DFF8E80276
:101A9C0000F0C4FA3000C0B270BD000070B5040094
:101AAC000D001021DFF8D00200F0E2FA3020FFF731
:101ABC00D7FE06002900E4B2200080B2FFF7DAFE60
:101ACC001021DFF8B40200F0A9FA3000C0B270BDEA
:101ADC00F8B507000E0014001D001021DFF8980265
:101AEC0000F0C6FA57F03200C0B2FFF7B9FE07009B
:101AFC00002D05D02000C0B2FFF7B2FE287003E025
:101B0C002000C0B2FFF7ACFEB6B2300AC0B2FFF78D
:101B1C00A7FE3000C0B2FFF7A3FE1021DFF8580279
:101B2C0000F07CFA3800C0B2F2BD0000F8B5070036
:101B3C000E0014001D001021DFF83C0200F098FA92
:101B4C0057F03E00C0B2FFF78BFE0700002D05D00A
:101B5C002000C0B2FFF784FE287003E02000C0B262
:101B6C00FFF77EFEB6B2300AC0B2FFF779FE300046
:101B7C00C0B2FFF775FE1021DFF8FC0100F04EFA41
:101B8C003800C0B2F2BD000080B59BB208B513009E
:101B9C009BB20A0092B20100C9B25020FFF77EFE40
:101BAC0002B002BD80B59BB208B513009BB20A000F
:101BBC0092B20100C9B25220FFF770FE02B002BD12
:101BCC0038B504001021DFF8B00100F051FA5820AC
:101BDC00FFF746FE05002000C0B2FFF741FE1021C2
:101BEC00DFF8940100F01AFA2800C0B232BD0000F0
:101BFC002DE9F84F04000D0093469A46BDF8286075
:101C0C00BDF82C709DF830809DF8349010215A4806
:101C1C0000F02EFA54F06800C0B2FFF721FE040069
:101C2C002800C0B2FFF71CFE5846C0B2FFF718FEE2
:101C3C005046C0B2FFF714FEB6B2300AC0B2BFB203
:101C4C00390A51EA0010C0B2FFF70AFE3000C0B2E8
:101C5C00FFF706FE3800C0B2FFF702FE4046C0B2E6
:101C6C00FFF7FEFD4846C0B2FFF7FAFD10214248CF
:101C7C0000F0D4F92000C0B2BDE8F28F2DE9F84F86
:101C8C0004000D0093469A46BDF82860BDF82C70F0
:101C9C009DF830809DF834901021374800F0E8F919
:101CAC0054F06A00C0B2FFF7DBFD04002800C0B29C
:101CBC00FFF7D6FD5846C0B2FFF7D2FD5046C0B272
:101CCC00FFF7CEFDB6B2300AC0B2BFB2390A51EA44
:101CDC000010C0B2FFF7C4FD3000C0B2FFF7C0FD6A
:101CEC003800C0B2FFF7BCFD4046C0B2FFF7B8FDEC
:101CFC004846C0B2FFF7B4FD10211F4800F08EF922
:101D0C002000C0B2BDE8F28F70B505000E001400C3
:101D1C001021194800F0ACF955F07800C0B2FFF76B
:101D2C009FFD0500F6B2A4B2200A50EA0610C0B21C
:101D3C00FFF796FD2000C0B2FFF792FD10210E4870
:101D4C0000F06CF92800C0B270BD000010B50400A2
:101D5C001021094800F08CF954F08000C0B2FFF754
:101D6C007FFD0020FFF77CFD04001021024800F0ED
:101D7C0055F92000C0B210BD0008014038B5040070
:101D8C000D001021084800F073F954F0C000C0B2E7
:101D9C00FFF766FD2800C0B2FFF762FD1021024874
:101DAC0000F03CF931BD00BF0008014070B50400E3
:101DBC000D00002600220020002300215FF0000C03
:101DCC00DFF800E374451CD0DFF8FC02844218D025
:101DDC00DFF8F802844214D0DFF8F402844210D009
:101DEC00DFF8F00284420CD0DFF8EC02844208D019
:101DFC00DFF8E802844204D0B121DFF8D80302F006
:101E0C00E9FFE878002819D0E878042816D0E8789B
:101E1C00282813D0E878482810D0E87814280DD05A
:101E2C00E87810280AD0E8781C2807D0E878182819
:101E3C0004D0B221DFF89C0302F0CCFF28880028E4
:101E4C0004D1B321DFF88C0302F0C4FFE87810F062
:101E5C000F06E87810F0100F0FD0A87801280AD0E0
:101E6C00A878022807D0A878032804D0BA21DFF874
:101E7C00640302F0AFFFA87806432888000624D03C
:101E8C002168002006E0EA78482A02D1012282402B
:101E9C002261401C082817D2012383402A881A404B
:101EAC009A42F6D183005FF00F0C1CFA03FC7FEA18
:101EBC000C02114016FA03F21143EA78282AE2D1F7
:101ECC00012282406261E4E7216028884FF480712E
:101EDC0088422AD36168002024E0012203000833E1
:101EEC0012FA03F32A881A409A421AD183005FF03F
:101EFC000F0C1CFA03FC7FEA0C02114016FA03F2D9
:101F0C001143EA78282A04D10122030008339A40AD
:101F1C006261EA78482A04D10122030008339A400E
:101F2C002261401C0828D8D3616070BD38B504000C
:101F3C000D000020DFF88C118C421DD0DFF88801D9
:101F4C00844219D0DFF88401844215D0DFF8800177
:101F5C00844211D0DFF87C0184420DD0DFF8780187
:101F6C00844209D0DFF87401844205D040F21D117F
:101F7C00DFF8600202F02EFFADB2012D42D0ADB2FF
:101F8C00022D3FD0ADB2042D3CD0ADB2082D39D0CE
:101F9C00ADB2102D36D0ADB2202D33D0ADB2402D18
:101FAC0030D0ADB2802D2DD04FF48070ADB28542C3
:101FBC0028D04FF40070ADB2854223D04FF480602E
:101FCC00ADB285421ED04FF40060ADB2854219D03F
:101FDC004FF48050ADB2854214D04FF40050ADB2E6
:101FEC0085420FD04FF48040ADB285420AD04FF4F9
:101FFC000040ADB2854205D04FF48F71DFF8D401AB
:10200C0002F0E8FEA06815EA0001080080B2401E4C
:10201C008041C043C00FC0B232BD000038B50400CF
:10202C000D002848844217D02748844214D02748F2
:10203C00844211D0264884420ED0264884420BD0CC
:10204C002548844208D02548844205D04FF4B47109
:10205C00DFF8800102F0BEFEADB2002D05D140F2DA
:10206C006911DFF8700102F0B5FEADB2256131BD2A
:10207C0038B504000D001348844217D0124884422E
:10208C0014D01248844211D0114884420ED0114809
:10209C0084420BD01048844208D01048844205D0AA
:1020AC004FF4BC71DFF82C0102F094FEADB2002DA0
:1020BC0005D140F27911DFF81C0102F08BFEADB2B4
:1020CC00656131BD00080140000C01400010014069
:1020DC000014014000180140001C01400020014088
:1020EC0038B504000D000020E4B2002C16D0E4B288
:1020FC00012C13D0E4B2022C10D0E4B2032C0DD07E
:10210C00E4B2042C0AD0E4B2052C07D0E4B2062CBD
:10211C0004D04FF411712F4802F05CFEEDB2002D8B
:10212C0031D0EDB2012D2ED0EDB2022D2BD0EDB26F
:10213C00032D28D0EDB2042D25D0EDB2052D22D0E3
:10214C00EDB2062D1FD0EDB2072D1CD0EDB2082D2F
:10215C0019D0EDB2092D16D0EDB20A2D13D0EDB277
:10216C000B2D10D0EDB20C2D0DD0EDB20D2D0AD0E3
:10217C00EDB20E2D07D0EDB20F2D04D040F245215B
:10218C00144802F027FE0F2015F00301C9B2890094
:10219C008840EDB2A9100E4A52F82110C0430840F5
:1021AC00EDB2A9100A4A42F82100EDB2A810084974
:1021BC0051F82000E4B215F00301C9B2890014FAF9
:1021CC0001F10843EDB2A910014A42F8210031BDDA
:1021DC0008000140144C000870B586B004000D00D6
:1021EC0000200021002200230026DFF894C2644561
:1021FC0014D0DFF89002844210D0DFF88C028442B5
:10220C000CD0DFF88802844208D0DFF884028442C4
:10221C0004D0AD21DFF87C0202F0DCFD2868002838
:10222C0003D028685949884204D3AE21DFF86402F0
:10223C0002F0D0FDA888002809D0A8884FF480515E
:10224C00884204D0AF21DFF84C0202F0C3FDE888CD
:10225C00002813D0E8884FF4805188420ED0E888CB
:10226C004FF40051884209D0E8884FF4405188421D
:10227C0004D0B021DFF81C0202F0ACFD2889002844
:10228C000ED028894FF48061884209D028894FF4F8
:10229C00C061884204D0B121DFF8F80102F09AFD48
:1022AC0068894FF6F371084202D16889002804D17D
:1022BC00B221DFF8E00102F08DFDA889002813D0CF
:1022CC00A8894FF4807188420ED0A8894FF4007110
:1022DC00884209D0A8894FF44071884204D0B321B8
:1022EC00DFF8B00102F076FDA889002810D0DFF8E5
:1022FC00900184420CD0DFF88C01844208D0DFF8C6
:10230C008801844204D0B721DFF8880102F062FD15
:10231C002600208A4CF6FF710840E9880843208289
:10232C00A0894EF6F3110840A9882A8911436A89BD
:10233C0011430843A081A08A4FF6FF410840A989A8
:10234C000843A08200A801F097FDDFF83401864213
:10235C0001D1039900E002991920484329688900AA
:10236C00B0FBF1F26420B2FBF0F000010109642330
:10237C0001FB1323190132316422B1FBF2F111F08C
:10238C000F010843208106B070BD00BF21AA440094
:10239C0038B504000D00DFF8E800844215D0DFF8F2
:1023AC00E400844211D0DFF8E00084420DD0DFF865
:1023BC00DC00844209D0DFF8D800844205D04FF409
:1023CC00A171DFF8D00002F005FDEDB2002D08D0B0
:1023DC00EDB2012D05D040F24311DFF8B80002F048
:1023EC00F9FCEDB2002D04D0A08950F40050A0816E
:1023FC0004E0A0894DF6FF710840A08131BD0000BA
:10240C0038B504000D001E48844210D01D4884428B
:10241C000DD01D4884420AD01C48844207D01C4869
:10242C00844204D040F232211A4802F0D3FC4FF41B
:10243C000070ADB2854204D340F23321154802F04E
:10244C00C9FCE805C00DA08031BD000010B504002A
:10245C000B48844210D00B4884420DD00A48844269
:10246C000AD00A48844207D00948844204D040F27A
:10247C004321084802F0AEFCA088C005C00D10BD79
:10248C00003801400044004000480040004C00402F
:10249C0000500040344D000838B504000D000020F9
:1024AC002C498C4210D02C4884420DD02B488442AD
:1024BC000AD02B48844207D02A48844204D040F2E8
:1024CC001331294802F086FCADB2012D23D0ADB2F8
:1024DC00802D20D0ADB2402D1DD0ADB2202D1AD004
:1024EC00ADB2102D17D04FF48070ADB2854212D022
:1024FC004FF40070ADB285420DD0ADB2082D0AD0AC
:10250C00ADB2042D07D0ADB2022D04D04FF44571FD
:10251C00154802F05FFC4FF40070ADB285420DD14E
:10252C000C4884420AD00C48844207D00B488442A1
:10253C0004D04FF446710C4802F04CFC208815EA8C
:10254C000001080080B2401E8041C043C00FC0B2E1
:10255C0032BD00BF0038014000440040004800403C
:10256C00004C004000500040344D00080B3202700B
:10257C00B94A12685279002A02D048F6610201E089
:10258C0048F64102427092B2120A8270DFF8682358
:10259C001278C270B04A126852888280C180AE49EB
:1025AC00096809880181417851F00801417001786E
:1025BC00083101700178491D017006218172CE49E4
:1025CC004968C172CC49496889B2090A0173CA4980
:1025DC004968090C4173C8494968090C89B2090A50
:1025EC0081730F207047000038B50D0014002200D5
:1025FC00D2B2010089B29748FFF7B8FF002109E079
:10260C00C0B2C9B20A18934BC9B211F805C002F88E
:10261C0003C0491CC9B2E4B2A142F1D32018C0B224
:10262C0032BD000038B500253B4C01F03FF803F0FB
:10263C0061FD0121200000F0E1FF207810F07F0007
:10264C002070207805281AD12178344800F0D6FF64
:10265C00607810F02001481E8041C043C00F99499A
:10266C0008732F48407810F0800F50D0E078A249C2
:10267C00097888424BD1A0480121417047E094F978
:10268C0000000B388F4988718E4880790D388D4940
:10269C008871022001B50E238A4890F90620D2B227
:1026AC0021781E4800F0A6FD02B00500607810F0FD
:1026BC002001481E8041C043C00F824908738148E5
:1026CC00218941807F48174981607E4890F9060036
:1026DC007C498968401808307A4990F900204A737F
:1026EC00407810F0800F0FD076480078E17888425F
:1026FC000AD0EDB2002D07D1607810F0DF00492828
:10270C0002D1704801218173E0786E49087003F0A2
:10271C00F3FC00F0D7FF31BD480800204908002029
:10272C004C0800205708002010B5040000F004FFEE
:10273C00012801D1012026E003F0DEFC46480460AC
:10274C006048002181606C48012181706A48002139
:10275C00416041480068007900F032FF3E48006853
:10276C00008800F039FF3C480068408800F03CFFCE
:10277C003948006802F038FB8820FFF721FA012065
:10278C0001F0A6FF002010BD70B505000E0014006E
:10279C0059488078002801D100F096F86721200074
:1027AC00C0B203F023FC040000F092FF00F07EFFA7
:1027BC002200D2B23100280080B2FFF715FF0221AF
:1027CC0002B50E232200D2B20100C9B2214800F09A
:1027DC0073FD02B048484068401C4749486000F00F
:1027EC0071FF00F013FF002805D04FF4E771184873
:1027FC0002F0DCFA012418480068407900280BD05C
:10280C003D4800214170C82000F064F93A484078F6
:10281C00441EA441E40F00E00024E4B2012C04D1D6
:10282C0040F2E7110A4802F0C1FA334880780028D8
:10283C0001D100F055F8E4B2002C04D12E480078F8
:10284C00401C2D49087000F089FD2000C0B270BDFD
:10285C0090580008D4070020440A00201948807BB7
:10286C007047000070B505000C00160003F044FC26
:10287C002100C9B2134890F90600C0B203F0B6FBB0
:10288C00C0B202000F488168280003F0B7FB002E8D
:10289C0002D000F00FF830800A480021817303F059
:1028AC0029FC2100C9B2074890F90600C0B203F018
:1028BC009DFB70BD80B500F07FFE0249497B081A74
:1028CC0040B202BD400E002080B5044802F05CFA14
:1028DC0009480121817000F0DDFE01BDA4580008FB
:1028EC0080B5044802F050FA03480021817000F0D2
:1028FC00D7FE01BDB8580008340A002080B54FF44B
:10290C007A7000F0E7F801BD80B5642000F0E2F8C1
:10291C0001BD000000B585B05FF4E13000900020EF
:10292C00ADF804000020ADF806000020ADF808005A
:10293C000020ADF80C000C20ADF80A0000A9B84836
:10294C00FFF74AFC0121B648FFF722FD05B000BD98
:10295C0080B501F0E5F90121042001F009FB01210A
:10296C00082001F005FB0121102001F001FB0121E1
:10297C00202001F0FDFA01214FF4804001F0F8FA1B
:10298C000121012001F0F4FA01BD000080B5002105
:10299C005FF0006001F01AFC4FF4E06001F0A8FB5E
:1029AC0006208DF8000000208DF8010000208DF825
:1029BC00020001208DF8030000A801F0B5FB0720F0
:1029CC008DF8000000208DF8010001208DF8020028
:1029DC0001208DF8030000A801F0A6FB01BD00004A
:1029EC0080B54FF40070ADF8000003208DF80200A4
:1029FC0018208DF8030000A97648FFF7D7F94FF49B
:102A0C008060ADF8000004208DF8030000A9714827
:102A1C00FFF7CCF90320ADF8000004208DF803007B
:102A2C0000A96C48FFF7C2F94FF44870ADF80000EC
:102A3C0003208DF8020010208DF8030000A90F4828
:102A4C00FFF7B4F94FF4F850ADF8000003208DF8FF
:102A5C00020004208DF8030000A95F48FFF7A6F9D7
:102A6C000420ADF8000003208DF8020004208DF83E
:102A7C00030000A90248FFF799F901BD000C0140C1
:102A8C000014014000B583B000210020FFF728FBA3
:102A9C000120009000208DF804000C208DF805001A
:102AAC0001208DF8060000A800F066FC0121002032
:102ABC00FFF716FB0220009000208DF804000C207C
:102ACC008DF8050001208DF8060000A800F054FCDC
:102ADC0007BD000001B481B00948019901600848A4
:102AEC0000680028FBD102B0704700000448006861
:102AFC00002804D002480068401E01490860704755
:102B0C00480A002000B587B0304802F03DF9012199
:102B1C0041F2040001F02CFA0121102001F028FAF6
:102B2C00E020ADF8000003208DF8020018208DF88D
:102B3C00030000A92748FFF739F91020ADF8000071
:102B4C0003208DF8020010208DF8030000A9214805
:102B5C00FFF72CF9C020ADF8000003208DF802001F
:102B6C0010208DF8030000A91B48FFF71FF9002067
:102B7C00ADF804004FF48270ADF806000020ADF8FB
:102B8C0008000020ADF80A000020ADF80C004FF44E
:102B9C000070ADF80E001820ADF810000020ADF854
:102BAC0012000720ADF8140001A9094800F05AF8EA
:102BBC000121074800F00CF940210748FFF72EFAD5
:102BCC0080210548FFF72AFA07B000BD40600008D5
:102BDC0000300140000801400010014010B5040015
:102BEC000A2C0ED10D210E48FFF70AFC80210C484F
:102BFC00FFF752FC0028F9D00A210948FFF700FC26
:102C0C0005E02100C9B289B20548FFF7F9FB802124
:102C1C000348FFF741FC0028F9D0200010BD00004C
:102C2C000038014038B5040020212000FFF734FCA7
:102C3C000028F9D02000FFF709FC0500EDB22900AF
:102C4C0089B22000FFF7DCFB80212000FFF724FC79
:102C5C000028F9D0EDB20D2D01D10A2001E0280099
:102C6C00C0B232BD38B504000D000020DFF8901260
:102C7C008C420CD0DFF88C02844208D0DFF888023A
:102C8C00844204D0A221DFF8840202F0A3F8288841
:102C9C00002813D028884FF4806188420ED02888F1
:102CAC004FF40041884209D028884FF440418842B3
:102CBC0004D0A521DFF8540202F08CF868884FF498
:102CCC008271884207D06888002804D0A621DFF8DA
:102CDC003C0202F07FF8A8884FF40061884207D0CC
:102CEC00A888002804D0A721DFF8200202F072F88F
:102CFC00E888002807D0E888022804D0A821DFF84B
:102D0C000C0202F067F82889002807D028890128CE
:102D1C0004D0A921DFF8F40102F05CF868894FF4C3
:102D2C000071884207D06889002804D0AA21DFF8F6
:102D3C00DC0102F04FF8A889002819D0A8890828CE
:102D4C0016D0A889102813D0A889182810D0A889C3
:102D5C0020280DD0A88928280AD0A889302807D087
:102D6C00A889382804D0AB21DFF8A00102F032F892
:102D7C00E889002807D0E889802804D0AC21DFF846
:102D8C008C0102F027F8288A012804D2AD21DFF843
:102D9C007C0102F01FF8208810F4415029886A88C1
:102DAC001143AA881143EA8811432A8911436A897D
:102DBC001143AA891143EA89114308432080A08B4F
:102DCC004FF2FF710840A083288A208231BD000099
:102DDC0038B504000D00DFF8280184420DD0DFF86F
:102DEC002401844209D0DFF82001844205D040F24E
:102DFC00AD11DFF8180101F0EDFFEDB2002D08D098
:102E0C00EDB2012D05D04FF4D771DFF8000101F0C0
:102E1C00E1FFEDB2002D04D0208850F0400020805E
:102E2C0004E020884FF6BF710840208031BD0000BF
:102E3C0038B504000D00DFF8C80084420DD0DFF86F
:102E4C00C400844209D0DFF8C000844205D040F2AF
:102E5C002521DFF8B80001F0BDFFA58131BD0000D0
:102E6C0010B50400DFF8980084420DD0DFF8940010
:102E7C00844209D0DFF89000844205D040F235211D
:102E8C00DFF8880001F0A6FFA08910BD38B504005A
:102E9C000D0000201A498C420AD01A48844207D0EF
:102EAC001948844204D040F20131184801F092FFD5
:102EBC00ADB2802D19D0ADB2402D16D0ADB2202DB3
:102ECC0013D0ADB2102D10D0ADB2082D0DD0ADB2C7
:102EDC00042D0AD0ADB2022D07D0ADB2012D04D015
:102EEC0040F20231094801F075FF208915EA000112
:102EFC00080080B2401E8041C043C00FC0B232BD3A
:102F0C000030014000380040003C0040D44C000828
:102F1C004FF4001C1CEB410F38BF1CEB430F17D3B5
:102F2C001CEB410F09D31CEB430F28BF6FF00001C2
:102F3C001B4248BF81F0004170471CEB430F18BF88
:102F4C006FF0000102BF594001F0004100207047B2
:102F5C00BCEB410F98BFBCEB430F39D950EA410C85
:102F6C0018BF52EA430C13D150EA410C81EA030119
:102F7C0001F000414FF000001EBF41F0E04141F074
:102F8C007F61704752EA430C08BF6FF00001704735
:102F9C00F0B475464FF40014B4EB410F11D9B4EBF7
:102FAC00430F07D902F07EF902F06EF9E41B7608A4
:102FBC00AE4614E002F068F95F00A4EB5754AE463D
:102FCC000DE002F06FF94C00C7EB5454AE4606E02E
:102FDC00F0B44C007641640D5F00A4EB575446F1FD
:102FEC00000C04F580646FF0404606EA812545EA42
:102FFC009055800206EA832343EA925302219202FF
:10300C0027D0861A9D4143F0804304D2641E76007B
:10301C006D41B6185D4176006D41964275EB030724
:10302C0024BFB61A3D464941F5D34FF400607600F3
:10303C006D41964275EB030724BFB61A3D464041DD
:10304C00F5D376006D41B61A75EB030708BF36420F
:10305C0049E0ED1A43F0804303D2641E400043EB79
:10306C0045055B4200421AD041F48061001853EBD5
:10307C00450538BFED1A4941001853EB450538BFDB
:10308C00ED1A4941001853EB450538BFED1A49417B
:10309C00001853EB450538BFED1A4941ECD313EB3F
:1030AC00450538BFED1A494113EB450538BFED1AFC
:1030BC00494113EB450538BFED1A4941F4D34FF4A0
:1030CC00006013EB450538BFED1A404113EB450585
:1030DC0038BFED1A404113EB450538BFED1A40419E
:1030EC00EFD313EB45052CBF4FF00045002518BF5F
:1030FC0045F0804540EA4150C90A641E2FDC41F47A
:10310C008011D4F10104202C10DAC4F120072D42D7
:10311C0025FA04F518BF45F0010500FA07F635430A
:10312C00E04001FA07F63043E14026E0342C12DC93
:10313C00203C2D4208BF5FEA4007C4F1200720FA6B
:10314C0004F518BF45F0010501FA07F6354331FACD
:10315C0004F0002111E000205FEACC711AE021F4A8
:10316C00801111EB04515CBF11F5801F05E00020AC
:10317C004FF07F6141F0E0410AE06D0008BF10F0B4
:10318C00010F98BF5FEA350550F1000041F10001D5
:10319C0041EACC71F0BC704738B50C001500020048
:1031AC0010214FF44070FEF711FC220010214FF457
:1031BC004470FEF70BFC2A0010214FF44870FEF708
:1031CC0005FC4FF440734FF4407210210120FEF7C0
:1031DC00E9FC4FF444734FF4447210210120FEF7C4
:1031EC00E1FC4FF448734FF4487210210120FEF7B4
:1031FC00D9FC31BD2DE9F04180460C0015001E00B4
:10320C009DF8187000232200D2B24FF400710120F7
:10321C00FEF75EFC0020FEF785FB10F0080FF9D1DD
:10322C0040F2133340F20A2204210120FEF7ACFCD9
:10323C000020FEF777FB10F0080FF9D140F217339E
:10324C0040F2072202210120FEF79EFC0020FEF72F
:10325C0069FB10F0080FF9D139003000C0B2C9B2C7
:10326C0003B4F6B216F500714FF4007089B203B4D2
:10327C0031232A00D2B230210120FEF7FFFC04B02A
:10328C000020FEF74FFB10F0080FF9D12C20FEF7B1
:10329C005DFD05004246E4B2210089B24FF4007096
:1032AC00FEF754FBEDB215F00800401E8041C00F34
:1032BC00C0B2BDE8F08100002DE9F84304000D0018
:1032CC00160099469DF820805FFA88F8B8F1050F32
:1032DC0003D38B21204801F073FD5FFA88F8B8F115
:1032EC00010F03D3022010FA08F705E05FFA88F803
:1032FC00B8F1000F00D100272200EDB2290089B2ED
:10330C004FF42070FEF762FB41464846C0B2C9B28A
:10331C0003B4002140F2812003B432233200D2B234
:10332C0030210120FEF764FC04B00020FEF7FAFA0D
:10333C0010F0080FF9D100237A19D2B24FF4207192
:10334C000120FEF7F3FB0020FEF7ECFA10F0080F5B
:10335C00F9D1BDE8F18300BF6856000880B540F292
:10336C00233202210120FEF7CFFC0020FEF7DAFA0F
:10337C0010F0080FF9D101BD10B50400002021791F
:10338C00002906D02079042803D06921684801F06F
:10339C0021FD6079082809D060790C2806D0607965
:1033AC00102803D06A21624801F014FD2068000D3A
:1033BC000005002802D12068002803D16B215C484D
:1033CC0001F008FDA079002806D0A079012803D0CF
:1033DC006C21574801F0FEFC4C48A179002939D0EA
:1033EC004A4909682268D2431140484A11601D4974
:1033FC0009682268D24311401A4A116021790818D1
:10340C000168226811430160174800682168C943AC
:10341C00084015490860154800682168C9430840F0
:10342C0012490860607910280CD10F480068216897
:10343C0008430D4908600D480068216808430B4992
:10344C0008600EE031486179081801682268114360
:10345C00016006E02179081801682268D243114006
:10346C00016010BD04040140080401400C0401403B
:10347C0010B5040000200021012C35D0022C33D0D3
:10348C00042C31D0082C2FD0102C2DD0202C2BD04C
:10349C00402C29D0802C27D0B4F5807F24D0B4F5D3
:1034AC00007F21D0B4F5806F1ED0B4F5006F1BD017
:1034BC00B4F5805F18D0B4F5005F15D0B4F5804F2B
:1034CC0012D0B4F5004F0FD0B4F5803F0CD0B4F54A
:1034DC00003F09D0B4F5802F06D0B4F5002F03D0EF
:1034EC00E421134801F076FC0848006814EA000156
:1034FC0010480068044205D00800401E8041C043BB
:10350C00C00F00E00020C0B210BD0000000401405C
:10351C0010B50400200D0005002801D1002C03D1AA
:10352C00FB21034801F056FC0248046010BD00006A
:10353C00B44B00081404014010B5164801F024FCEB
:10354C00002001F0C5F8002001F0EEF8102112481F
:10355C00FEF764FD002001F0F5F86E20FFF7BAFAD3
:10356C00012001F0EFF8C820FFF7B4FA012001F0B8
:10357C00DBF8C820FFF7AEFA084C05E0617820783C
:10358C0080B2FEF745FAA41C20780028F6D1002062
:10359C0010BD00BF3460000800080140180E002068
:1035AC0080B54020FEF7F4F902BD000080B5422042
:1035BC00FEF7EEF902BD00000F48007870470000DE
:1035CC0080B5C0B205217FF02B0200FB0121C9B2EE
:1035DC002E20FEF7D3FB01BD80B5010089B24FF45C
:1035EC007D70FEF735FA01BD80B5010089B240F25D
:1035FC00F230FEF72DFA01BD780E002080B50A00DE
:10360C0001001000C0B2FEF749FA01BD38B540F612
:10361C00C41400254FF480613248FEF787FC002863
:10362C00F8D002212220FEF7A9FB02E01420FFF7BC
:10363C0051FA641E200080B2012809D34420FEF701
:10364C0071F94FF400712748FEF770FC0028EDD09B
:10365C00A4B2002C09D140F2D3110D4801F0A6FB05
:10366C0001254820FEF75EF90AE000254FF4806141
:10367C001C48FEF75BFC0028F8D08120FEF7A0FA6E
:10368C002C212220FEF77AFB2800C0B232BD00BFED
:10369C00D85B000880B54220FEF744F901BD00005C
:1036AC0080B54520FEF73EF901BD000080B58820AD
:1036BC00FEF786FA4FF48070FFF72AFF002001F026
:1036CC0007F801BD80B5012001F002F801BD000032
:1036DC0080B54FF400610348FEF728FC0028F8D1B0
:1036EC0001BD00000010014040B2002809D540B2D5
:1036FC0010F00F00064A8018C9B2090100F8041C2A
:10370C0004E040B2034AC9B209018154704700BFBA
:10371C0018ED00E000E400E080B5B0F1807F01D34B
:10372C00012010E00002000A401E074908600F212A
:10373C005FF0FF30FFF7D8FF044800210160044818
:10374C0007210160002002BD14E000E018E000E059
:10375C0010E000E080B50E4801F016FB4B48016804
:10376C000C4801F0B3FE494841680B4801F0AEFE2D
:10377C0046488168094801F0A9FE4448C1680848D8
:10378C0001F0A4FE41480169064801F09FFE01BD0D
:10379C00E05800088056000898560008B0560008FB
:1037AC00C8560008E056000810B5FFF7D1F83748A6
:1037BC0000F062FBFFF7EAF8FFF712F9FFF762F986
:1037CC00FFF7A8F8314800684FF47A71B0FBF1F0BC
:1037DC00FFF7A2FF002800D0FEE7214801F076FE9B
:1037EC00204801F073FE204801F070FE1F4801F0E4
:1037FC006DFE1F4801F06AFE1C4801F067FE1D4873
:10380C0001F064FE1C4801F061FE1C4801F05EFEF4
:10381C00164801F05BFE1A4801F058FE1948FFF7F4
:10382C0001FA0400184801F051FEE4B220003028DF
:10383C0006D0312807D0322808D0332809D00AE026
:10384C00FFF788FF07E000F035FF04E001F07EFB96
:10385C0001E0FDF723FFE4B2782CC1D1002010BDAC
:10386C0018550008F8560008E85B000810570008C7
:10387C0028570008F85B0008085C0008185C000872
:10388C004C60000800380140285C0008DC0900206E
:10389C00B0B581EA030C0CF0004C40F2FF7515EA50
:1038AC0011541DBF15EA1357AC42AF423AE0E4196C
:1038BC0023EA455343F48013C90241F0004141EA25
:1038CC0050574FEAC02E1100AEFB020200284FF0F9
:1038DC000000E7FB01204FF00001E3FB0E2118BFB5
:1038EC0042F00102401800214941E3FB0701A4F515
:1038FC0080640F0302D252004041494154F101044B
:10390C006BDD470872F1004250F1000051EB04519D
:10391C00A1F580115CBF41EA0C01B0BD4CEA055128
:10392C000020B0BD05EA1357AC4214BFAF4240E0D3
:10393C0050EA410E1CBF52EA430E02E061460020E1
:10394C00B0BD24423C441AD13F42F7D0090302BF18
:10395C0001460020143FB1FA81FEA7EB0E0401FAD8
:10396C000EF70EF10C0ECEF1200100FA0EFEC8403F
:10397C0047EA000723EA455343F48013A3E733F0E7
:10398C000043B3FA83F704BFB2FA82FE77440B3FCD
:10399C00E41BB7F1200E2FBF02FA0EF3BB40C7F1A8
:1039AC00200E22FA0EFE38BF43EA0E03BA40641C06
:1039BC0082E750EA410E14BF52EA430E6FF0000149
:1039CC004FF4001717EB430F8ABF194617EB410F43
:1039DC00B6E74CEA05510020B0BDD4F10104B4F1B6
:1039EC0020070FDAC4F12007520828BF42F0010269
:1039FC0010FA07F501FA07F7E1BF2A43E040384314
:103A0C00E1400FE0352C99DCC7F1200452EA40026A
:103A1C0020FA07F218BF42F0010231FA07F0A14078
:103A2C000A43002172F1004250F1000051EB0C01ED
:103A3C00B0BD0000F0B44FF0004591EA030F44BF55
:103A4C006B4000F000BD8B4208BF824205D9844612
:103A5C00100062464C19591923004FF4001C1CEB42
:103A6C00410F06D308BF1CEB430F28BF6FF00001BA
:103A7C0062E0BCEB430F14D9AB4352EA43060BD0C4
:103A8C004FEA4C0CBCEB410F04D80C0D661E342EC7
:103A9C0057DD51E0801A994150EA410608BF0021D8
:103AAC004AE00C0DA4EB1356362E45DC012E45DCFA
:103ABC004FEA045445EAC32343EA525312BFD202DD
:103ACC0092025B0845EAC12141EA5051D2EBC02079
:103ADC00994125D404BF01460020B1FA81F601FAC0
:103AEC0006F1C6F1200220FA02F241EA020100FAC4
:103AFC0006F002BF203609421EE04FEAF474B4EB24
:103B0C00465434F001064FEA740409D8D6F5001671
:103B1C00760D2C40F04071FA06F25040F1404840CE
:103B2C00C00A40EA415021EA050128BF5FEA50056E
:103B3C0050F1000044EBD121F0BC704745EAC3239F
:103B4C00DB0A45EAC121C90A202E0DDD203E63FAAD
:103B5C0006F5F3405D40124218BF45F001056D4279
:103B6C00984161F100010DE062FA06F5F24085EA38
:103B7C00020563FA06FC82EA0C02F3405A406D42DD
:103B8C009041994111F4801F05D1641E620502D049
:103B9C006D004041494121F480116D0008BF10F0C7
:103BAC00010F98BF5FEA350550F1000041EB04515D
:103BBC00F0BC704710B5FF2313EAD0541DBF13EAB5
:103BCC00D1529C429A4246E0A41ADA0780EA0103D9
:103BDC00134042EA012142EA0020421A3CBF641E13
:103BEC0001EB4202090AB2FBF1F001FB10221202B6
:103BFC00B2FBF1FE01FB1E224EEA00201202B2FBC8
:103C0C00F1FE01FB1E224EEA00207F3410DDE4059C
:103C1C0052EAC07272F1004154EB500058BF10F5DB
:103C2C00000F5CBF184310BDFF2043EAC05010BD0D
:103C3C00D4F1020440F08070192C0ADCC4F120018C
:103C4C0010FA01F10A4372F1004120FA04F05841D4
:103C5C0010BD180010BD4FF0807212EB400F3CBF2E
:103C6C0012EB410F14E012EB400F08D312EB410F93
:103C7C0028BF6FF0000001F00041484010BD12EB6E
:103C8C00410F12BF6FF00000484000F0004010BD23
:103C9C0044001CBF5FEA41040DE0440080EA0100CF
:103CAC0000F000401CBF40EAC35010BD4A0008BFE2
:103CBC006FF0000010BD4FF08072B2EB400F20D9B6
:103CCC00B2EB410F0DD980EA010303F0004340022F
:103CDC004902B0FA80F2B1FA81F49040A140A41AE2
:103CEC007BE703EAD15490EA010303F0004340025E
:103CFC00B0FA80F290406442A41A090241F00041EB
:103D0C006BE703EAD05490EA010303F00043490245
:103D1C00B1FA81F29140A418000240F000405CE737
:103D2C0080B55348006850F0010051490860514873
:103D3C0000680F4908404F4908604D4800680D491C
:103D4C0008404B4908604A4800687FF480210840CD
:103D5C0047490860474800687FF4FE010840454920
:103D6C00086005485FF41F01016000F007F801BD11
:103D7C000000FFF8FFFFF6FE0810024080B500F0CF
:103D8C0001F801BD82B0002001900020009038485D
:103D9C00006850F48030364908603548006810F4EB
:103DAC00003000900198401C01900098002803D12D
:103DBC000198B0F5A06FF0D12D48006810F40030D8
:103DCC00401E8041C043C00F0090009801284BD189
:103DDC002648006850F01000244908602348006809
:103DEC0003218843214908602048006850F00200F4
:103DFC001E4908601F481F49096801601D481D497C
:103E0C00096801601B48006850F48060194908601B
:103E1C00184800687FF47C11084016490860154862
:103E2C00006850F48810134908601148006850F07D
:103E3C0080700F4908600E48006810F0007FFAD0BF
:103E4C000C480068032188430A4908600948006847
:103E5C0050F00200074908600648006810F00C009A
:103E6C000828F9D102B07047FEE700BF00200240DD
:103E7C00001002400410024010B500220021002363
:103E8C005FF0000CDFF8E4E0DEF800E01EF00C0E52
:103E9C007246002A04D0042A05D0082A06D025E050
:103EAC002C49016024E02C49016021E02F4909686C
:103EBC0011F470112D4A126812F48033890C891C8C
:103ECC00002B04D1254A01FB02F1016010E0274AC6
:103EDC00126812F4003F04D0214A01FB02F1016088
:103EEC0006E01D4A01FB02F1016001E01949016085
:103EFC001E49096811F0F00212091A4912F801C0A2
:103F0C00016831FA0CF141601849096811F4E0625A
:103F1C00120A144912F801C0416831FA0CF181609F
:103F2C001249096811F46052D20A0E4912F801C004
:103F3C00416831FA0CF1C1600C49096811F4404236
:103F4C00920B094912F801C0C168B1FBFCF1016187
:103F5C0010BD00BF00127A00001BB70000093D0025
:103F6C00808D5B00500E0020700E0020041002406B
:103F7C0038B504000D001348204201D1002C04D1A7
:103F8C0040F23741104800F025FFEDB2002D07D06C
:103F9C00EDB2012D04D04FF487610B4800F01AFFED
:103FAC00EDB2002D05D00648006820430449086096
:103FBC0005E003480068E14308400149086031BD51
:103FCC00181002400200FFFF744C000870470000FC
:103FDC00FEE70000FEE70000FEE70000FEE7000041
:103FEC0070470000704700007047000080B5FEF776
:103FFC007DFD01BD70470000704700007047000058
:10400C0070470000704700007047000080B5012029
:10401C00FFF72EFA002805D0034801F057FA0120CB
:10402C00FFF776FA01BD00BF4057000880B50220AB
:10403C00FFF71EFA002805D0034801F047FA0220CA
:10404C00FFF766FA01BD00BF345500087047000049
:10405C007047000070470000704700007047000078
:10406C007047000070470000704700007047000068
:10407C007047000070470000704700007047000058
:10408C00704700007047000080B54FF48070FFF758
:10409C00EFF9002805D0FEF7C5FA4FF48070FFF752
:1040AC0037FA01BD704700007047000070470000F0
:1040BC007047000070470000704700007047000018
:1040CC007047000070470000704700007047000008
:1040DC0070470000704700007047000070470000F8
:1040EC0070470000704700007047000070470000E8
:1040FC0010B50400B4F5E06F0FD0B4F5C06F0CD060
:10410C00B4F5A06F09D0B4F5806F06D0B4F5407F3C
:10411C0003D062213D4800F05DFE024820432A494D
:10412C00086010BD0000FA0538B50400002000211D
:10413C000F25E278002A06D0E078012803D07421FC
:10414C00324800F047FE6078102803D375212F48C1
:10415C0000F040FEA078102803D376212B4800F005
:10416C0039FEE07800281DD01748006810F4E06094
:10417C00D0F5E060000AD0F10401C54060788840B9
:10418C00A17829400843000121780C4A88542078F2
:10419C0040110B490122237813F01F039A4041F878
:1041AC00202009E02078401106490122237813F0E1
:1041BC001F039A4041F8202031BD00BF00E400E00D
:1041CC0000E100E080E100E00CED00E038B5040017
:1041DC000D00B4F1005F06D0B4F1006F03D09D2147
:1041EC000A4800F0F7FD0648854203D39E21074894
:1041FC0000F0F0FD0348284020430349086031BD1E
:10420C00FFFF070080FFFF1F08ED00E0504E000885
:10421C0070B505000C00E88847F6F07108400011F5
:10422C0040F2FF76B0420DD1E88810F00F0F05D1A7
:10423C00A88818B9688808B9288808B1022070BD08
:10424C00012070BD30B9280000F068F9012801DBAD
:10425C00002070BD0419B4420BDBE88810F4004F49
:10426C0002D00020304901E000203049C5E90001AE
:10427C00E6E7012CE88809DB48F20F010840A4B2FC
:10428C0040EA0410E8804FF0FF3070BD00F40040AD
:10429C00E98801F00F0141F01001E980641E6FF014
:1042AC0033018C4205DAE8800020A88068802880E1
:1042BC0070BD24B26FF00E018C420BDA6A882A8032
:1042CC00AA886A80EA88AA800022EA80103424B284
:1042DC008C42F3DB614209B20A001FD0C2F110021A
:1042EC002B880B41B5F802C00CFA02FC4CEA030314
:1042FC002B806B880B41B5F804C00CFA02FC4CEA1D
:10430C0003036B80AB880B41B5F806C00CFA02F2C4
:10431C001A43AA80EA8822FA01F1E980E988084365
:10432C00E8804FF0FF3070BD0000F0FF0000F07F20
:10433C00A446FF2212EAD0541DBF12EAD153944274
:10434C00934222E0E418D30780EA01021A4043EAC0
:10435C00012143EA0020A1FB003000424CBF641C49
:10436C004000803C51DB5B08E40553EA006373F1C9
:10437C00004154EB102064465EBF10F5000F104353
:10438C007047FF2042EAC050704702EAD153944272
:10439C0014BF934223E042001CBF5FEA410204E0D9
:1043AC00484000F000406446704780EA010202F089
:1043BC00004224420AD11B4238D04002B0FA80F4A9
:1043CC00A0401C1B090241F00041C4E74902B1FAAC
:1043DC0081F39940E41A000240F00040BBE743002F
:1043EC0014BF5FEA41036FF000004FF0807313EBD2
:1043FC00410F64468ABF084613EB400F7047484094
:10440C0000F0004040EAC2507047D4F10804202C60
:10441C000CDCC4F120015B0810FA01F10B4373F1C1
:10442C00004120FA04F0504164467047104664463F
:10443C0070470000F0B44FF0004591EA030C44BF04
:10444C006B40FFF700BB8B4208BF824205D9844604
:10445C00100062468C46190063464FF4001C1CEB9E
:10446C00410F01D3F0BC7047BCEB430F0FD952EA9C
:10447C00430648D0BCEB410F05D80C0DAB43661E70
:10448C00342E0CDD3FE0AB43801859413BE00C0D62
:10449C00A4EB1356352E36DC45EAC323DB0A45EA7A
:1044AC00C121C912202E11DB203E18BF5FEA020287
:1044BC0063FA06F523FA06F385EA030518BF45F0FF
:1044CC000105C01851F100010CD213E072FA06F587
:1044DC00F2405540F3415A40B340F3405A408018E3
:1044EC00594107D349085FEA30005FEA350528BF18
:1044FC0045F0010501F58011420875F1004250F1BB
:10450C00000041EB0451F0BC4FF4001C1CEB410FBC
:10451C0038BF70470020090D0905704710B5010020
:10452C00C88800F400420120CB8803F00F03CB8035
:10453C00C3B98B8823B94B8813B90B88002B57D080
:10454C008B88CB80B1F802C0A1F804C0B1F800C0D0
:10455C00A1F802C04FF0000CA1F800C0103800B256
:10456C00002BEDD0CB88102B1ED28B88B1F806C057
:10457C004FEAD33E4EEA4C0CA1F806C0B1F802E06B
:10458C004FEADE3444EA43038B800B88DC0B44EAAD
:10459C004E0EA1F802E05B000B80401E00B21FFA29
:1045AC008CFCBCF1100FE0D3CB88202B1CD34B8898
:1045BC00B1F800C04FEAC33E4EEA5C0CA1F800C053
:1045CC00B1F804C04FEACC3E4EEA53034B80CB8883
:1045DC004FEAC33E4EEA5C0CA1F804C05B08CB80EA
:1045EC00401C00B2202BE2D2CB8803F00F03CB800F
:1045FC00CB881A43CA8010BD80B54FF400711448A3
:10460C00FDF736FD01BD000080B54FF40071104878
:10461C00FDF704FD01BD000080B520210C48FDF71D
:10462C0027FD01BD80B520210948FDF7F7FC01BD30
:10463C0080B54FF480710648FDF71AFD01BD0000EE
:10464C0080B54FF480710248FDF7E8FC01BD000015
:10465C00000C014080B5FFF7CFFFFFF7DDFFFFF740
:10466C00E7FF01BD80B5FFF7CFFFFFF7DBFFFFF7DB
:10467C00E7FF01BD10B5040018E0FFF7C5FFFFF719
:10468C00CBFFFFF7D5FFFEF739F9FFF7B5FFFFF7C3
:10469C00C9FFFFF7CDFFFEF731F9FFF7ADFFFFF7CD
:1046AC00BBFFFFF7CDFFFEF729F9641E002CE4D108
:1046BC0010BD000080B5FFF7CDFFFEF71FF9FFF727
:1046CC00D1FFFEF71BF90320FFF7D4FF01BD00005B
:1046DC0010B584B004004FF4C060FFF709FD17203B
:1046EC008DF8000000208DF8010000208DF80200EC
:1046FC008DF8034000A8FFF717FD08210220FDF7F5
:10470C00EFFC4FF48070FEF703FF4FF480700190C4
:10471C0000208DF8080008208DF809008DF80A405B
:10472C0001A8FEF729FE1FBD80B5C0B2002804D138
:10473C0040210B48FDF79CFC03E040210848FDF7A5
:10474C006DFC01BD80B5C0B2002804D180210448A5
:10475C00FDF78EFC03E080210148FDF75FFC01BDF5
:10476C000010014010B5040002210D48FEF78EFB2D
:10477C000028F9D0E4B2210089B20948FEF758FBB1
:10478C0010BD000080B50648FEF76AFBC0B202BD42
:10479C0080B501210248FEF779FB0028F9D001BD54
:1047AC00003001402DE9005003D34942404261F1F1
:1047BC00000100F01BF8BDE800505FEA4C0C05D37B
:1047CC004942404261F100011CEA0C0F03D55B42E7
:1047DC00524263F10003704713F0004C03D55B4267
:1047EC00524263F100039CEA210CDBD151EA030C29
:1047FC000ED1002A1FBF8446B0FBF2F002FB10C2A0
:10480C00704701F083BC0B000200002100207047B0
:10481C0052EA030CF5D02DE9F041002400250F00DD
:10482C00060052EA03081FD05FF0000892185B41A3
:10483C0008D2BB4208BFB24298BF08F10108F5D9B3
:10484C0018F100085FEA33034FEA3202B01A77EB33
:10485C00030124BF0F46064664416D415B084FEAD5
:10486C003202B8F10108F1DA2000290032003B00D5
:10487C00BDE8F08170B5050005F10F0407208443F5
:10488C00012000F069F8A54204D3012000F08AF859
:10489C00002070BD082C04D2082402E0083000F07F
:1048AC008DF8224D286801000CD1291D00E0011D56
:1048BC000868A0B10268A242F9D315E01368A342BC
:1048CC0012D2111D0A68002AF8D10068291D03E0D4
:1048DC001368A34208D2111D0A688242F8D100F075
:1048EC00ABFD0028DAD100210029CED00E6830684B
:1048FC000838A04202D27068086008E0A01908606D
:10490C00726842603068001B0A6810603460086886
:10491C0018B1416809B1001D00E000202860012099
:10492C0000F040F806F1080070BD00BF3C0A002002
:10493C0010B5214C201D00F065FB04F1080000F0BF
:10494C0061FB04F10C0000F05DFB04F11000BDE80C
:10495C00104000F057BB000038B50400164D286815
:10496C0098B9281D00F046FB05F1080000F042FB49
:10497C0005F10C0000F03EFB05F1100000F03AFBD5
:10498C0000220021064800F05DF801202860042C6C
:10499C0004D205EB8400001D00F03CFB31BD00BFD0
:1049AC003D49000880B5042805D2034901EB80007D
:1049BC00001D00F037FB01BDF009002010B5F0B16F
:1049CC00A0F108042068082819D310F0070F16D19D
:1049DC000120FFF7C1FF1A48416809B18C4203D28C
:1049EC00616044601BE019004B680BB1A342FAD321
:1049FC000A6853189C4203D20120FFF7D3FF10BD65
:104A0C00A34204D123689A180A600C0007E04A6894
:104A1C001AB123681B199A42EED362604C6061682C
:104A2C000029E9D0226812198A42E5D100210160DF
:104A3C006068216802685118216040686060DBE79B
:104A4C003C0A002080B51D4BD3F800C0DFF828E0ED
:104A5C00F44506D20CF10C0EC3F800E0BCF1000FCB
:104A6C0001D1012002BDCCF80010CCF80400CCF828
:104A7C000820002002BD00BFD4070020002000BF8A
:104A8C00F8B50E4C27683E0014D00B4D00E088475B
:104A9C00AE420FD02068874201D0060007000C3EC2
:104AAC0071680800F4D00020706030680028EED1E6
:104ABC008847EDE7F1BD00BF00060020740E002012
:104ACC0070B500F10801026801EBC202406802EB0C
:104ADC00C00000239C469E4601E0AC4207D18242B6
:104AEC0000D170BD52F8044B52F8045B2D1963458C
:104AFC0002BF51F8043B51F804CB9C446345ECD005
:104B0C00AC42EAD0BEF1000F08BF13F901EB00264E
:104B1C0001E004F8016BBEF1000FEFD0AC42EDD018
:104B2C006345EBD0BEF1000F52BFAEF1010E13F88E
:104B3C00016B0EF1010EECE78B0707D0521E24BF60
:104B4C0011F8013B00F8013BF6D8704783071ED1E2
:104B5C00103A07D330B4B1E83810103AA0E8381046
:104B6C00F9D230BC530724BFB1E80810A0E80810F4
:104B7C0044BF51F8043B40F8043BD20724BF31F842
:104B8C00022B20F8022B44BF0B7803707047083AB5
:104B9C0007D3B1E80810083A40F8043B40F804CBBE
:104BAC00F7D25307E4E70000443A5C576B506A7441
:104BBC005C4D53746F7279322E305C4D616E676F41
:104BCC002D5A312E4669726D776172655C4C696243
:104BDC007261726965735C53544D3332463130786F
:104BEC005F5374645065726970685F44726976656E
:104BFC00725C7372635C73746D3332663130785FE0
:104C0C00657874692E630000443A5C576B506A7483
:104C1C005C4D53746F7279322E305C4D616E676FE0
:104C2C002D5A312E4669726D776172655C4C6962E2
:104C3C007261726965735C53544D3332463130780E
:104C4C005F5374645065726970685F44726976650D
:104C5C00725C7372635C73746D3332663130785F7F
:104C6C006770696F2E630000443A5C576B506A742E
:104C7C005C4D53746F7279322E305C4D616E676F80
:104C8C002D5A312E4669726D776172655C4C696282
:104C9C007261726965735C53544D333246313078AE
:104CAC005F5374645065726970685F4472697665AD
:104CBC00725C7372635C73746D3332663130785F1F
:104CCC007263632E63000000443A5C576B506A7445
:104CDC005C4D53746F7279322E305C4D616E676F20
:104CEC002D5A312E4669726D776172655C4C696222
:104CFC007261726965735C53544D3332463130784E
:104D0C005F5374645065726970685F44726976654C
:104D1C00725C7372635C73746D3332663130785FBE
:104D2C007370692E63000000443A5C576B506A74D0
:104D3C005C4D53746F7279322E305C4D616E676FBF
:104D4C002D5A312E4669726D776172655C4C6962C1
:104D5C007261726965735C53544D333246313078ED
:104D6C005F5374645065726970685F4472697665EC
:104D7C00725C7372635C73746D3332663130785F5E
:104D8C0075736172742E630080B50100014800F0E8
:104D9C009DFB01BDB860000880B50A000100024807
:104DAC0000F094FB01BD00BF2860000880B50A002C
:104DBC000100024800F08AFB01BD00BFCC5800087E
:104DCC0080B50A000100024800F080FB01BD00BF65
:104DDC009854000880B50A000100024800F076FBE8
:104DEC00FEE700BF0053000880B5002108E0C9B2FF
:104DFC00124A00238B54C9B2114A00238B54491C0C
:104E0C00C9B21029F3D30D4909220A700C490922A1
:104E1C000A700B4902880A72018889B2090A084A89
:104E2C00D171064906224A73054906224A73044A7F
:104E3C0002498068FEF7B0F901BD00BF140A0020DA
:104E4C00040A0020443A5C576B506A745C4D5374EE
:104E5C006F7279322E305C4D616E676F2D5A312E28
:104E6C004669726D776172655C4C696272617269D8
:104E7C0065735C53544D3332463130785F537464F0
:104E8C005065726970685F4472697665725C7372A2
:104E9C00635C6D6973632E6300000000C9B2830705
:104EAC0006D0521E22D310F8013B9942F7D11FE0D5
:104EBC00083A13D302F1040241EA012141EA01410B
:104ECC0050F8043B121F21BF4B40A3F1013C2CEACC
:104EDC00030C1CF0803FF3D0C9B2001F083210F84D
:104EEC00013B521E28BF91EA030FF8D818BF0120CE
:104EFC00401E7047F446400D40EAC120490006D2DE
:104F0C0000F013F8004248BF6FF00040604700F01B
:104F1C000CF84FF0004188428CBF08464042604775
:104F2C00400D40EAC12049000CD240F00040490D30
:104F3C00A1F58061491C05D4D1F11F0154BFC840B3
:104F4C00C01770474FF000007047000010B50024E8
:104F5C00FFF788FB01E0FFF75FFBFDF7D5FC2000B6
:104F6C00441C10F0010F02D1FFF762FB01E0FFF7C8
:104F7C0067FB01210948FCF7D9FF012802D1FFF793
:104F8C003BFB01E0FFF740FB02210448FCF7CEFF9E
:104F9C000128E0D0FFF746FBDFE700BF0008014027
:104FAC00014648074FF0807C1CEB410F05D30CBF2A
:104FBC0041F4E0016FF000017047BCEB410F12D9D6
:104FCC005FEA410C14D001F0004101F160514FEA4D
:104FDC00CC1C5FEA4C0CA1F58011FAD54FEA4C5071
:104FEC0001EBDC217047C91021F0E04101F1605167
:104FFC007047000080B50F4909680A0018BF884740
:10500C0001BD000080B50C4909680A0018BF88472B
:10501C0001BD000080B5094909680A0018BF88471E
:10502C0001BD000080B5064909680A0018BF884711
:10503C0001BD0000500A0020540A0020580A00202C
:10504C005C0A002030B90548D0E90001C2E9000132
:10505C000020704701700120704700BFE06000081D
:10506C0031B90A48D0E90001C3E9000100207047BA
:10507C0012B96FF00100704708B10A780280097804
:10508C00481E8041C043C00F704700BFE860000855
:10509C008861000888610008886100088861000840
:1050AC00886100088861000888610008FFFFFFFF25
:1050BC00FFFFFFFF1C610008886100088861000881
:1050CC008861000888610008F0600008F86000083A
:1050DC0088610008886100083C613E206368616E4D
:1050EC006E656C2031312C203C623E206368616E11
:1050FC006E656C2031322C203C633E206368616EFF
:10510C006E656C2031332C203C643E206368616EEC
:10511C006E656C2031340A003C653E206368616E1C
:10512C006E656C2031352C203C663E206368616EC8
:10513C006E656C2031362C203C673E206368616EB6
:10514C006E656C2031372C203C683E206368616EA4
:10515C006E656C2031380A003C693E206368616ED4
:10516C006E656C2031392C203C6A3E206368616E80
:10517C006E656C2032302C203C6B3E206368616E77
:10518C006E656C2032312C203C6C3E206368616E65
:10519C006E656C2032320A003C6D3E206368616E95
:1051AC006E656C2032332C203C6E3E206368616E41
:1051BC006E656C2032342C203C6F3E206368616E2F
:1051CC006E656C2032352C203C703E206368616E1D
:1051DC006E656C2032360A00002840F10880F446D7
:1051EC00404200F004F850F00040604700280DD019
:1051FC00B0FA80F18840D1F19D0110F07F0F06D1FB
:10520C00000A10F0010F03D800EBC1507047000AE0
:10521C0040EBC1507047000062F30F2262F31F4253
:10522C0004B5130096469446103928BFA0E80C50DC
:10523C00FAD85FEA417C28BF0CC048BF40F8042B69
:10524C00C90728BF20F8022B48BF00F8012B04BD6A
:10525C0000F10103810704D010F8011B0029F9D1DA
:10526C0010E00268B2F10131914311F0803F04BFAC
:10527C0050F8042FF6E710F8011B00291CBF10F89A
:10528C00011BFAE7C01A70474000494176410024DF
:10529C0011F4801F05D1641E4000494111F4801F98
:1052AC00F9D0704752005B417641002713F4801F00
:1052BC00F7D17F1E52005B4113F4801FF9D0704769
:1052CC00726376503A2025642C206C6F7374503ABC
:1052DC002025642C205045523A25352E3266202547
:1052EC00252C20525353493A25352E3266206442E0
:1052FC006D0A000057726F6E6720706172616D6588
:10530C00746572732076616C75653A2066696C659C
:10531C00202573206F6E206C696E652025640D0A44
:10532C00000000004FF4001C1CEB410F98BF1CEB5D
:10533C00430F09D841EA030C50EA4C0C52EA0C0C0E
:10534C0003D2994208BF9042704718BF8B4208BFE6
:10535C00824270474FF4001C1CEB410F98BF1CEBB2
:10536C00430F09D841EA030C50EA4C0C52EA0C0CDE
:10537C0003D28B4208BF8242704718BF994208BFC4
:10538C0090427047010040F10880F446404200F022
:10539C0004F851F000416047010009D0B0FA80F1E7
:1053AC008840C91CC1F58461090501EBD021400579
:1053BC00704700005041434B45545F53495A4520B8
:1053CC0073697A656F662870657254657374506181
:1053DC00636B65745F74292069732025640A00006F
:1053EC00507265737320416E79204B657920746F10
:1053FC002073746172742073656E64696E672064C7
:10540C00617461202E2E2E0A0000000066726571F8
:10541C0075656E63792072616E67652069732066AD
:10542C00726F6D202564204D487A20746F2025649E
:10543C00204D487A0A0000000649086808B100208F
:10544C00704705480860054907229143091A016015
:10545C00704700BF4C0A002000040020000600200A
:10546C004D56000894020000D407002000000000F4
:10547C00CD4A00080100000001000000896100080D
:10548C0019030000680A00201104000021212120CA
:10549C00415353455254204641494C454420212107
:1054AC002120257328292025640A000073656C656A
:1054BC0063746564206672657175656E63792069C5
:1054CC0073202564204D487A0A0000000EB400B504
:1054DC0082B003A9009100AB020001210248FAF747
:1054EC00FFFD06BC5DF810FB79580008F8B5070005
:1054FC000C0015001E0000F05FFB33002A00210099
:10550C00380001B0BDE8F040FFF7AABD4D616E67F1
:10551C006F205A3120746573742073746172742E09
:10552C002E2E0A0A0000000052696768742D55532C
:10553C00455220427574746F6E2050726573730AF5
:10554C0000000000626173696352664765745273B0
:10555C00736928292076616C3A2025640A000000C2
:10556C0053656C6563746564204275727374205363
:10557C00697A653A2025640A000000000A0A2D2D7C
:10558C002D2D2D2D2D2D2D2D2D2D2D2D2D2D2D2D3F
:10559C002D2D2D0A00000000313E205072696E74D2
:1055AC00205265676973746572733A204652454799
:1055BC000A000000323E205072696E7420526567FA
:1055CC006973746572733A20535245470A000000A0
:1055DC00353E2050455220546573742061707052D2
:1055EC00656365697665720A00000000363E2050DE
:1055FC0045522054657374206170705472616E73DF
:10560C006D69747465720A0010B50448044C02E0AC
:10561C0050F8041B8847A042FAD110BD6C54000806
:10562C009854000870B506000C00150000F0C4FA80
:10563C002A0021003000BDE87040FFF703BD0000D8
:10564C00002305E050F8041B41F8043B121FFBD16A
:10565C0050F8042B002AF5D17047000068616C5299
:10566C0066577269746554784275665365637572D2
:10567C0065000000535953434C4B5F46726571757E
:10568C00656E6379203D2025640A000048434C4B2D
:10569C005F4672657175656E6379203D2025640ADD
:1056AC000000000050434C4B315F467265717565CC
:1056BC006E6379203D2025640A00000050434C4B5A
:1056CC00325F4672657175656E6379203D20256485
:1056DC000A000000414443434C4B5F4672657175B0
:1056EC00656E6379203D2025640A00000A2D2D2D5E
:1056FC002D2D2D2D2D2D2D2D2D2D2D2D2D2D2D2DCE
:10570C002D2D0A002D2D2D2D2D2D2D2D2D2D2D2D0D
:10571C002D2D2D2D2D2D2D2D2D0A0000303E2053FD
:10572C00797374656D20496E666F726D6174696F03
:10573C006E0A00004C6566742D574B55502042750F
:10574C0074746F6E2050726573730A003078253054
:10575C00325820252D323073203A203078253032C3
:10576C00580A0000706572546573745F61707054F0
:10577C0072616E736D69747465720000323E204202
:10578C00555253545F53495A452031303030300A0A
:10579C0000000000333E2042555253545F53495A87
:1057AC0045203130303030300A000000343E204289
:1057BC00555253545F53495A4520313030303030B4
:1057CC00300A00000A2D2053656C65637420436811
:1057DC00616E6E656C202D0A0000000073656C65AF
:1057EC0063746564206368616E6E656C20697320F8
:1057FC0025640A0064656661756C74206368616E6B
:10580C006E656C2069732025640A00002D2D2D2DEA
:10581C002D2D2D2D2D2D2D2D2D2D2D2D2D2D2D2DAC
:10582C002D0A000000F06EFC002801D0FFF7ECFE02
:10583C000020FDF7B9FF00F067FC00000278C9B248
:10584C00012A91EA020F84BF10F8012FF8E718BF64
:10585C000020704780B504490868002803D0022056
:10586C00ABBE0020086001BD600A002038B5050001
:10587C000C00200000F00EFCA04218BF00252800F0
:10588C0032BD00006261736963526653656E645089
:10589C0061636B65740000006261736963526652E8
:1058AC006563656976654F6E00000000626173691F
:1058BC00635266526563656976654F6666000000E3
:1058CC005B4552524F525D20257328292025640ACE
:1058DC000000000053797374656D5F496E666F72DA
:1058EC006D6174696F6E00004343323532305F5323
:1058FC00524353484F5254454E30000043433235C7
:10590C0032305F53524353484F5254454E3100008E
:10591C004343323532305F53524353484F52544510
:10592C004E3200004343323532305F5352434558B8
:10593C0054454E30000000004343323532305F5343
:10594C005243455854454E31000000004343323514
:10595C0032305F535243455854454E3200000000DC
:10596C004343323532305F5258454E41424C4530FC
:10597C00000000004343323532305F5258454E41EF
:10598C00424C4531000000004343323532305F4514
:10599C0058434D41534B41300000000043433235D6
:1059AC0032305F4558434D41534B413100000000AC
:1059BC004343323532305F4558434D41534B4132AE
:1059CC00000000004343323532305F4558434D41AF
:1059DC00534B4230000000004343323532305F45B8
:1059EC0058434D41534B4231000000004343323584
:1059FC0032305F4558434D41534B4232000000005A
:105A0C004343323532305F45584342494E44583057
:105A1C00000000004343323532305F455843424961
:105A2C004E445831000000004343323532305F455C
:105A3C00584342494E44593000000000434332352C
:105A4C0032305F45584342494E4459310000000002
:105A5C004343323532305F4750494F4354524C30F8
:105A6C00000000004343323532305F4750494F430A
:105A7C0054524C31000000004343323532305F4702
:105A8C0050494F4354524C320000000043433235CE
:105A9C0032305F4750494F4354524C3300000000A2
:105AAC004343323532305F4750494F4354524C34A4
:105ABC00000000004343323532305F4750494F43BA
:105ACC0054524C35000000004343323532305F47AE
