:020000040800F2
:0800000000040020BD0000080F
:1000080001B481B002E00198401E019001980028D7
:10001800F9D102B07047000080B51048006850F070
:1000280008000E4908600E48006850F010000C499E
:1000380008600C48006850F400700A4908605FF4D2
:100048000000FFF7DDFF5FF40000FFF7D9FF064867
:10005800006850F4007004490860FEE71810024078
:10006800040C0140140C0140100C0140A1000008D0
:1000780004000000000400200000000010B504483F
:10008800044C02E050F8041B8847A042FAD110BD86
:100098007400000884000008002305E050F8041BE1
:1000A80041F8043B121FFBD150F8042B002AF5D16C
:1000B8007047000000F026F8002801D0FFF7DEFFA7
:1000C8000020FFF7A9FF00F01FF8000080B50449E1
:1000D8000868002803D00220ABBE0020086001BDDC
:1000E8000004002080B5FFF7F1FF02491820ABBEDD
:1000F800FCE7C0462600020007463846FFF7F2FF35
:0C010800FBE7000001207047FFF7F6BF86
:04000005080000BD32
:00000001FF
