:020000040800F2
:08000000000400205102000879
:1000080001B481B002E00198401E019001980028D7
:10001800F9D102B07047000080B50248FFF7F0FF41
:1000280001BD00BF143B0100D2B252EA8302002393
:100038005FEA016C1BD0002300E05B1C082B33D265
:1000480089B25FF0010C1CFA03FC6145F5D19B00F5
:1000580001685FF00F0C1CFA03FC7FEA0C0C1CEA29
:100068000101016001689A40114301601CE089B2F6
:10007800090A002300E05B1C082B15D289B25FF047
:10008800010C1CFA03FC6145F5D19B0041685FF047
:100098000F0C1CFA03FC7FEA0C0C1CEA01014160FE
:1000A80041689A40114341607047000080B5174885
:1000B800006850F00400154908601448006850F0C2
:1000C800080012490860002301224FF4007110480B
:1000D800FFF7AAFF0023012220210D48FFF7A4FF04
:1000E800002301224FF480710948FFF79DFF012387
:1000F800002201210748FFF797FF01230022022170
:100108000448FFF791FF00F051F8FEE7181002408D
:10011800000C0140000801401348006850F40070CA
:1001280011490860704700001448006850F40070D6
:1001380012490860704700000B48006850F0200022
:1001480009490860704700000C48006850F020001A
:100158000A490860704700000348006850F480703E
:100168000149086070470000140C0140034800680A
:1001780050F480700149086070470000100C01407D
:1001880080B5FFF7D1FFFFF7DFFFFFF7EFFF01BDF6
:1001980002000020926811400A0092B2521E924159
:1001A800D243D20F1000C0B27047000010B500242F
:1001B800FFF7E6FF01E0FFF7BFFFFFF72DFF200085
:1001C800441C10F0010F02D1FFF7C6FF01E0FFF752
:1001D800CDFF01210948FFF7DBFF012802D1FFF716
:1001E8009BFF01E0FFF7A0FF02210448FFF7D0FFC3
:1001F8000128E0D0FFF7A8FFDFE700BF00080140B3
:10020800350200080400000000040020000000007F
:1002180010B50448044C02E050F8041B8847A0427B
:10022800FAD110BD0802000818020008002305E0F2
:1002380050F8041B41F8043B121FFBD150F8042B63
:10024800002AF5D17047000000F026F8002801D0F8
:10025800FFF7DEFF0020FFF729FF00F01FF800007E
:1002680080B504490868002803D00220ABBE0020EE
:10027800086001BD0004002080B5FFF7F1FF0249C6
:100288001820ABBEFCE7C0462600020007463846E9
:10029800FFF7F2FFFBE7000001207047FFF7F6BF0A
:04000005080002519C
:00000001FF
